:020000040800F2
:100000004020001071460008CD460008CD4600088B
:10001000CD460008CD460008CD460008000000008F
:10002000000000000000000000000000B14B0008CC
:10003000CD46000800000000CD460008E94A00084F
:10004000CD460008CD460008CD460008CD46000844
:10005000CD460008CD460008CD460008CD46000834
:10006000CD460008CD460008CD460008CD46000824
:10007000CD460008CD460008CD460008CD46000814
:10008000AD610008195F0008CD460008CD460008A4
:10009000CD460008CD460008CD460008CD460008F4
:1000A000CD460008CD460008CD460008CD460008E4
:1000B000CD460008CD460008CD460008CD460008D4
:1000C000CD460008CD460008CD460008CD460008C4
:1000D000CD460008CD460008CD460008CD460008B4
:1000E000CD460008CD460008CD460008CD460008A4
:1000F000CD460008CD460008CD460008CD46000894
:10010000CD460008CD460008CD460008CD46000883
:10011000CD460008CD460008CD460008CD46000873
:10012000CD460008CD460008CD460008CD46000863
:10013000CD460008CD460008CD460008CD46000853
:10014000CD460008CD460008CD460008CD46000843
:10015000CD460008CD460008CD460008CD46000833
:10016000CD460008CD460008CD460008CD46000823
:10017000CD460008CD460008CD460008CD46000813
:10018000CD460008CD46000810B5054C237833B99C
:10019000044B13B10448AFF300800123237010BD5A
:1001A0003002002000000000F8810008084B10B564
:1001B0001BB108480849AFF300800848036803B939
:1001C00010BD074B002BFBD0BDE81040184700BF07
:1001D00000000000F88100083402002028020020FE
:1001E00000000000154B002B08BF134B9D46A3F5E4
:1001F000803A00218B460F461348144A121A07F022
:1002000070FE0F4B002B00D098470E4B002B00D0F8
:1002100098470020002104000D000D48002802D05E
:100220000C48AFF3008007F01BFE2000290006F009
:10023000FBFD07F001FE00BF000008004020001099
:1002400000000000000000003002002054110020D7
:1002500000000000000000002DE9F0438BB00AAF61
:10026000AB4B0093AB4B0193AB4B0293AB4B039364
:1002700001230493AA4B059301230693A948AA4995
:10028000AA4AAB4B03F088FDAA4B0093AA4B0193FB
:10029000AA4B0293AA4B039301230493A94B059302
:1002A00001230693A848A949A94AAA4B03F074FD63
:1002B000A64B0093A44B0193A74B0293A74B039328
:1002C000A74B0493A74B0593A74B0693A74B079304
:1002D0000123089393488F49974A934B03F022FEDA
:1002E000A34804F0A3F99C4B93ED017AA14BD3ED05
:1002F000097A77EE677A17EE900A07F055FA044606
:100300000D469C4B9B6A184607F04EFA02460B4678
:100310002046294607F09CFA02460B464FF00000A3
:100320004FF0000107F0E0F802460B4614461D4668
:10033000904B93ED0B7A884BD3ED037A67EE277AD7
:1003400017EE900A07F030FA02460B46204629467F
:1003500007F0CAF802460B4690469946854BD3E90A
:100360000645844B9B8F1A467B4B1B8E03FB02F387
:10037000184607F0F7F902460B46104619464FF0AB
:1003800000027D4B07F064FA02460B4620462946E0
:1003900007F0AAF802460B4610461946754BD3E9FA
:1003A000042307F055FA02460B464046494607F03B
:1003B0009BF802460B461046194607F0E3FC02463E
:1003C000654B1A616D486E4904F03EF9694B93ED37
:1003D0000C7A614BD3ED017A67EE277A5E4BC3ED61
:1003E000057A4B4B00934B4B01934B4B02934B4B7A
:1003F0000393012304934A4B059301230693494831
:1004000049494A4A4A4B03F035FD4A4B00934A4B4F
:1004100001934A4B02934A4B039301230493494BA4
:1004200005930123069348484849494A494B03F03C
:1004300021FD464B0093444B0193474B0293474B9E
:100440000393474B0493474B0593474B0693474B06
:1004500007930123089333482E49374A324B04F05F
:10046000C5F8012003F0CCFB464B93ED087B002040
:10047000B0EE470AF0EE670A03F0AEFB414BD3E95A
:100480000E23104619464FF000023F4B07F048FC80
:100490000346002B2FD13B4BD3E90E01394BD3E957
:1004A000082307F021F802460B4690469946354B43
:1004B000D3E90823104619464FF00002334B07F0EA
:1004C000C7F902460B4614461D4601231E46404608
:1004D000494622462B4607F04BFC0346002B01D130
:1004E00000231E46F3B283F00103DBB2002B02D0DF
:1004F000244B274A1A60234B93F84030002B02D03C
:10050000204B234A1A601F4B9A6A01329A6241E0DB
:10051000E8100020EA100020A81000206F01002041
:1005200064010020E0100020E2100020E410002010
:10053000E6100020F4100020F6100020B01000207B
:100540007001002068010020EC100020EE10002057
:10055000F0100020F2100020C8100020CC10002065
:10056000D0100020D4100020B8100020500100202E
:10057000F8100020300100200000F03E6E01002045
:10058000D8100020001100200000F0BF0000B03C97
:10059000288100089B6A002B03D11A4BDA6A0132CA
:1005A000DA62184C174B9B6A184607F0DBF8154BBC
:1005B000D3E90C2307F04CF902460B4690469946C6
:1005C000104BDB6A184607F0CDF80E4BD3E90C232D
:1005D00007F03EF902460B46104619464FF000025E
:1005E000094B07F035F902460B464046494606F0EE
:1005F0007DFF02460B46C4E908230437BD46BDE82B
:10060000F08300BF001100200000F0410000000056
:1006100080B58AB000AF4E4B18460021482207F043
:1006200060FC4B494FF000024A4BC1E90E23484998
:1006300045A3D3E90023C1E90C23454B464A9A6000
:10064000434B464ADA60424B454A1A61404B454AA1
:100650005A613F4B444A5A60434B444A1A60434BE9
:10066000434A1A603A4B5B68394A18329A60384BF1
:100670005B68374A08325A60354B5B68344A20322F
:10068000DA603C480021342207F02BFC3A48002174
:10069000202207F026FC39480021242207F021FC03
:1006A0002B4B364A9A61354B10221A60334B344A31
:1006B0005A60324B334A9A60304B334ADA602F4BE0
:1006C000324A1A614FF000024FF00003C7E90423D9
:1006D00000237B6207E0D7E904232749C1E900230F
:1006E0007B6A01337B627B6A002BF4DD4FF00002F2
:1006F0004FF00003C7E9022300233B6207E0D7E97C
:1007000002231D49C1E902233B6A01333B623B6A74
:10071000002BF4DD4FF000024FF00003C7E9002387
:100720000023FB6107E0D7E900231349C1E9042353
:10073000FB690133FB61FB69002BF4DD2837BD4603
:1007400080BD00BFAFF3008000000040E17A943F1D
:10075000001100200000F0BFBC5313CAC99491FFE0
:100760008C5F2B8D016D3A524C02002060020020FC
:1007700040810008C8100020A8100020640200205A
:100780000000002040000020D000002028010020B0
:1007900080B400AFBD465DF8047B704780B500AF04
:1007A000084800F0BFFA00BF0648022100F0F4FA42
:1007B0000346002BF8D0034800F0E0FA0346184641
:1007C00080BD00BF0020014080B586B000AF00F0C2
:1007D0002FF84FF48070012105F04CFF00233B609F
:1007E00000233B7100237B710023FB600023BB606F
:1007F00000233B6100233B753B460C48194600F043
:1008000057F90A4800210122012300F0C1F90748E5
:10081000012100F097FA0548012100F09DF90348F5
:1008200000F080FA1837BD4680BD00BF00200140AF
:1008300080B582B000AF0120012105F0DFFE012369
:100840003B6003233B713B460348194605F030FFEC
:100850000837BD4680BD00BF0000024080B584B0AF
:1008600000AF03463960FB71144B1B7883F0010322
:10087000DBB2002B06D000F0ADF800F0E1F80F4B32
:1008800001221A70FB79002B08D00D484FF48051DB
:1008900005F0B6FF386800F02BF80CE008484FF47C
:1008A000805105F0BBFF4FF00003FB6007F10C0324
:1008B000184600F01DF81037BD4680BD88020020A4
:1008C000000C024080B500AF084B1B7883F0010399
:1008D000DBB2002B04D0054B01221A70FFF774FF26
:1008E000FFF75CFF0346184680BD00BF8902002069
:1008F00080B582B000AF78607B68D3ED007A9FED61
:100900002C7AF4EEC77AF1EE10FA03DD7B68294AFF
:100910001A600CE07B68D3ED007A9FED277AF4EE45
:10092000C77AF1EE10FA02D57B68244A1A607B6818
:10093000D3ED007AF5EEC07AF1EE10FA05DD20482D
:100940004FF4005105F06AFF04E01D484FF40051D8
:1009500005F056FF7B68D3ED007AF5EEC07AF1EE34
:1009600010FA03DD7B68D3ED007A04E07B68D3EDF9
:10097000007AF1EE677A7B68C3ED007A7B68D3ED8D
:10098000007A9FED107AC7EE877A9FED0F7A77EEA7
:10099000877A9FED0E7A67EE877AFCEEE77A0C484D
:1009A00017EE901A00F036FB0837BD4680BD00BF39
:1009B0007368913D7368913D736891BD736891BD93
:1009C000000C02408FC2B53DCDCCCC3D00401C4652
:1009D0000004004080B582B000AF0220012105F084
:1009E0000DFE15480421022205F026FF10233B606E
:1009F00002233B710023BB710123FB7103237B7135
:100A00003B460D48194605F053FE0820012105F02C
:100A1000F5FD4FF440533B6001233B710023BB7154
:100A20000023FB7103237B713B460448194605F004
:100A30003FFE0837BD4680BD00040240000C024066
:100A400080B588B000AF0220012105F0F5FD00233C
:100A5000FB820023BB830023BB7742F20F73BB6191
:100A6000A723BB8207F114031048194600F0AEF922
:100A700060233B8001237B804FF47A73BB600023AB
:100A8000BB813B460948194600F04AFA074808214D
:100A900000F0CEFA0548012100F002FA03480121D6
:100AA00000F01EFA2037BD4680BD00BF00040040A4
:100AB00080B485B000AF786039600023FB6000230C
:100AC000FB727B685B68FB60FB6823F0407323F478
:100AD0008073FB603B681B791A023B681B681343F9
:100AE000FA681343FB607B68FA685A607B689B680E
:100AF000FB60FA68174B1340FB603B681A693B6860
:100B0000DB681A433B689B681A433B685B795B0070
:100B10001343FA681343FB607B68FA689A607B684A
:100B2000DB6AFB60FB6823F47003FB603B681B7DA2
:100B3000013BDAB2FB7A1343FB72FB7A1B05FA68BE
:100B40001343FB607B68FA68DA621437BD465DF8D0
:100B5000047B7047FDF7FFC080B483B000AF7860BE
:100B60000B46FB70FB78002B06D07B689B6843F03C
:100B700001027B689A6005E07B689B6823F00102B4
:100B80007B689A600C37BD465DF8047B704700BFF8
:100B900080B485B000AF7860084611461A46034617
:100BA000FB700B46BB7013467B700023FB60002379
:100BB000BB60FB78092B23D97B68DB68FB60FB7883
:100BC000A3F10A0213465B001344072202FA03F35F
:100BD000BB60BB68DB43FA681340FB607978FB7845
:100BE000A3F10A0213465B00134401FA03F3BB604E
:100BF000FA68BB681343FB607B68FA68DA601EE042
:100C00007B681B69FB60FA7813465B00134407227C
:100C100002FA03F3BB60BB68DB43FA681340FB6076
:100C20007978FA7813465B00134401FA03F3BB604A
:100C3000FA68BB681343FB607B68FA681A61BB788B
:100C4000062B21D87B685B6BFB60BB785A1E134672
:100C50009B0013441F2202FA03F3BB60BB68DB4313
:100C6000FA681340FB60F978BB785A1E13469B0064
:100C7000134401FA03F3BB60FA68BB681343FB60DB
:100C80007B68FA685A6347E0BB780C2B21D87B68F5
:100C90001B6BFB60BB78DA1F13469B0013441F22BB
:100CA00002FA03F3BB60BB68DB43FA681340FB60E6
:100CB000F978BB78DA1F13469B00134401FA03F35B
:100CC000BB60FA68BB681343FB607B68FA681A6311
:100CD00022E07B68DB6AFB60BB78A3F10D02134660
:100CE0009B0013441F2202FA03F3BB60BB68DB4383
:100CF000FA681340FB60F978BB78A3F10D02134644
:100D00009B00134401FA03F3BB60FA68BB6813430A
:100D1000FB607B68FA68DA621437BD465DF8047BD5
:100D2000704700BF80B483B000AF78607B689B6879
:100D300043F080427B689A600C37BD465DF8047BC7
:100D4000704700BF80B483B000AF78600B46FB7083
:100D5000FB78002B06D07B689B6843F480627B683D
:100D60009A6005E07B689B6823F480627B689A60E8
:100D70000C37BD465DF8047B704700BF80B483B07C
:100D800000AF78607B68DB6C9BB218460C37BD46C1
:100D90005DF8047B704700BF80B485B000AF786019
:100DA0000B46FB700023FB737B681A68FB781340CB
:100DB000002B02D00123FB7301E00023FB73FB7BBC
:100DC00018461437BD465DF8047B704780B485B083
:100DD00000AF786039600023FB817B681B88FB8152
:100DE0007B68284A934213D07B68274A93420FD0EE
:100DF0007B68B3F1804F0BD07B68244A934207D0C5
:100E00007B68234A934203D07B68224A934208D1ED
:100E1000FB8923F07003FB813B685A88FB891343ED
:100E2000FB817B681C4A93420CD07B681B4A93422F
:100E300008D0FB8923F44073FB813B681A89FB8946
:100E40001343FB817B68FA891A803B685A687B6888
:100E5000DA623B681A887B681A857B68094A934284
:100E600003D07B68084A934204D13B689B7A9AB2CC
:100E70007B681A867B6801229A821437BD465DF82A
:100E8000047B704700000140000401400004004062
:100E900000080040000C004000100040001400401A
:100EA00080B483B000AF78600B46FB70FB78002BFA
:100EB00008D07B681B889BB243F080039AB27B68A2
:100EC0001A8007E07B681B889BB223F080039AB2EC
:100ED0007B681A800C37BD465DF8047B704700BF05
:100EE00080B483B000AF78600B46FB70FB78002BBA
:100EF00008D07B681B889BB243F001039AB27B68E1
:100F00001A8007E07B681B889BB223F001039AB22A
:100F10007B681A800C37BD465DF8047B704700BFC4
:100F200080B485B000AF7860396000237B810023F6
:100F3000FB810023BB817B681B8C9BB223F00103E8
:100F40009AB27B681A847B681B8CFB817B689B88C8
:100F5000BB817B681B8B7B817B8923F070037B814A
:100F60007B8923F003037B813B681A887B891343C9
:100F70007B81FB8923F00203FB813B689A89FB8913
:100F80001343FB813B685A88FB891343FB817B68D1
:100F90001E4A934203D07B681D4A934223D1FB89AA
:100FA00023F00803FB813B68DA89FB891343FB814B
:100FB000FB8923F00403FB813B689A88FB89134378
:100FC000FB81BB8923F48073BB81BB8923F400734D
:100FD000BB813B681A8ABB891343BB813B685A8A31
:100FE000BB891343BB817B68BA899A807B687A8905
:100FF0001A833B689A687B685A637B68FA891A840B
:101000001437BD465DF8047B704700BF0000014007
:101010000004014080B483B000AF786039607B6821
:101020003A685A630C37BD465DF8047B704700BFD1
:1010300080B485B000AF78600B467B800023FB81D5
:101040007B681B8BFB81FB8923F00803FB81FA89FA
:101050007B881343FB817B68FA891A831437BD466A
:101060005DF8047B704700BF80B58AB000AF786040
:1010700039600023FB8400237B840423BB84574B0B
:10108000FB617B689B88FB84FB8C23F03F03FB8424
:1010900007F10C03184605F007FA7B69FB61FB6951
:1010A0004F4AA2FB03239B0C7B84FA8C7B8C13435B
:1010B000FB847B68FA8C9A807B681B889BB223F048
:1010C00001039AB27B681A800023FB843B681B688B
:1010D000444A934215D83B681B685B00FA69B2FB2F
:1010E000F3F3BB84BB8C032B01D80423BB84FA8CA1
:1010F000BB8C1343FB847B8C01339AB27B681A84CC
:1011000040E03B68DB884BF6FF72934209D13B68B5
:101110001A6813465B001344FA69B2FBF3F3BB840D
:101120000EE03B681A6813469B0013449A00134470
:10113000FA69B2FBF3F3BB84BB8C43F48043BB84FA
:10114000BB8CC3F30B03002B03D1BB8C43F0010317
:10115000BB84BA8CFB8C13439BB26FEA43436FEAA8
:101160005343FB847B8C4FF4967202FB03F31E4ABD
:1011700082FB03129211DB17D31A9BB201339AB28E
:101180007B681A847B68FA8C9A837B681B889BB285
:1011900043F001039AB27B681A807B681B88FB844A
:1011A000FB8C23F4816323F00203FB843B689A8861
:1011B0003B685B8913439AB2FB8C1343FB847B68C7
:1011C000FA8C1A803B689A893B681B8913439AB250
:1011D0007B681A812837BD4680BD00BF00127A00A7
:1011E00083DE1B43A0860100D34D621080B483B020
:1011F00000AF78600B46FB70FB78002B08D07B6853
:101200001B889BB243F001039AB27B681A8007E007
:101210007B681B889BB223F001039AB27B681A801B
:101220000C37BD465DF8047B704700BF80B483B0C7
:1012300000AF78600B46FB70FB78002B08D07B6812
:101240001B889BB243F480739AB27B681A8007E0D4
:101250007B681B889BB223F480739AB27B681A80E8
:101260000C37BD465DF8047B704700BF80B483B087
:1012700000AF78600B46FB70FB78002B08D07B68D2
:101280001B889BB243F400739AB27B681A8007E014
:101290007B681B889BB223F400739AB27B681A8028
:1012A0000C37BD465DF8047B704700BF80B483B047
:1012B00000AF78600B46FB701346BB70BB78002B09
:1012C00004D0FB7843F00103FB7003E0FB7823F0CC
:1012D0000103FB70FB789AB27B681A820C37BD461B
:1012E0005DF8047B704700BF80B483B000AF7860C6
:1012F0000B46FB70FB78002B08D07B681B889BB2E9
:1013000043F480639AB27B681A8007E07B681B888D
:101310009BB223F480639AB27B681A800C37BD4677
:101320005DF8047B704700BF80B483B000AF786085
:101330000B46FB70FB789AB27B681A820C37BD466D
:101340005DF8047B704700BF80B483B000AF786065
:101350007B681B8A9BB2DBB218460C37BD465DF832
:10136000047B704780B487B000AF78603960002399
:101370003B610023FB600023BB600023FB757B689F
:101380009B8A9BB2FB607B681B8B9BB2BB60BB687C
:101390001B04BB60FA68BB68134323F07F433B61C7
:1013A0003A693B681A403B689A4202D10123FB75B7
:1013B00001E00023FB75FB7D18461C37BD465DF838
:1013C000047B704780B487B000AF78603960002339
:1013D000FB7500233B610023FB607B68FB603B687F
:1013E0001B0F3B613B6823F07F433B603B69002B55
:1013F00003D0FB681433FB6005E03B681B0C3B60CB
:10140000FB681833FB60FB681A683B681340002BCD
:1014100002D00123FB7501E00023FB75FB7D18461C
:101420001C37BD465DF8047B704700BF80B582B0B5
:1014300000AF03460A46FB711346BB7100F0B2F9D8
:10144000FB7918466B21002200F004F9FA79BB7988
:1014500010461A211A4600F0FDF8FB79184675214E
:1014600000F0B2F80346682B0CBF01230023DBB267
:1014700018460837BD4680BD80B584B000AF03462E
:10148000FB710023BB81FB7918463C2100F09CF8DE
:1014900003463B73FB7918463B2100F095F8034661
:1014A0007B73BB891BB218461037BD4680BD00BF99
:1014B00080B584B000AF0346FB710023BB81FB798C
:1014C00018463E2100F080F803463B73FB7918462E
:1014D0003D2100F079F803467B73BB891BB21846A7
:1014E0001037BD4680BD00BF80B584B000AF034655
:1014F000FB710023BB81FB791846402100F064F8A2
:1015000003463B73FB7918463F2100F05DF8034624
:101510007B73BB891BB218461037BD4680BD00BF28
:1015200080B584B000AF0346FB710023BB81FB791B
:101530001846442100F048F803463B73FB791846EF
:10154000432100F041F803467B73BB891BB2184668
:101550001037BD4680BD00BF80B584B000AF0346E4
:10156000FB710023BB81FB791846462100F02CF863
:1015700003463B73FB791846452100F025F80346E6
:101580007B73BB891BB218461037BD4680BD00BFB8
:1015900080B584B000AF0346FB710023BB81FB79AB
:1015A0001846482100F010F803463B73FB791846B3
:1015B000472100F009F803467B73BB891BB218462C
:1015C0001037BD4680BD00BF80B584B000AF034674
:1015D0000A46FB711346BB7100BF1C484FF4003133
:1015E000FFF7F0FE0346002BF7D1FB79002B01D06B
:1015F000D22300E0D023FB73FB7B1846002100F0D0
:101600006DF8BB7911481946FFF78EFEFB7B01335D
:10161000DBB21846012100F061F80C480021FFF709
:1016200063FE0A480121FFF721FE00BF0748084971
:10163000FFF798FE0346002BF8D00448FFF784FE1E
:10164000034618461037BD4680BD00BF0054004019
:101650004000030080B584B000AF0346FB710B4629
:10166000BB7113467B7100BF1A484FF40031FFF77E
:10167000A9FE0346002BF7D1FB79002B01D0D22322
:1016800000E0D023FB73FB7B1846002100F026F816
:10169000BB7910481946FFF747FE00BF0D480E49B9
:1016A000FFF760FE0346002BF8D07B790948194606
:1016B000FFF73AFE00BF07480749FFF753FE03460E
:1016C000002BF8D003480121FFF7D0FD1037BD46AD
:1016D00080BD00BF005400408400070080B582B088
:1016E00000AF03460A46FB711346BB711648012141
:1016F000FFF79CFD00BF14481449FFF733FE034673
:10170000002BF8D0FA79BB790F4811461A46FFF73B
:10171000CDFDBB79002B08D100BF0B480C49FFF76A
:1017200021FE0346002BF8D00AE0BB79012B07D13C
:1017300000BF05480749FFF715FE0346002BF8D008
:101740000837BD4680BD00BF0054004001000300C3
:10175000820007000200030080B582B000AF0220C3
:10176000012104F04BFFC0233B6002233B710223A5
:101770007B710123BB710123FB713B46084819466D
:1017800004F096FF06480621042205F055F80448A7
:101790000721042205F050F80837BD4680BD00BF80
:1017A0000004024080B584B000AF154B1B7883F075
:1017B0000103DBB2002B20D0FFF7CEFF4FF4001067
:1017C000012104F039FF0F4B3B600023BB804BF637
:1017D000FF73FB8000233B8100237B814FF4804318
:1017E000BB8109480121FFF701FD3B460648194628
:1017F000FFF73AFC024B01221A701037BD4680BD3C
:101800008A020020A08601000054004080B582B00A
:1018100000AF7860134B1B687A689A421CDD124B4C
:101820001B68002B07D0104B1B68184606F046FBC0
:101830000C4B00221A607B68184606F037FB034603
:101840001A46094B1A60084B1B68002B01D1012373
:1018500003E0044A7B681360002318460837BD463E
:1018600080BD00BF940200209802002080B586B0A1
:1018700000AF786039600023BB6000237B610823E0
:10188000FB600023FB7419E0154B1868FA687B694C
:10189000D11A7B697A68134407F1080204F048FA08
:1018A0000346FB74FB7C002B00D00BE0BB687A691D
:1018B00013447B617B69002B00D103E07A69FB68EC
:1018C0009A42E1DBBB68002BCCBF01230023DBB2D3
:1018D0001A463B681A70FB7C18461837BD4680BD17
:1018E0009002002080B586B000AF78600023FB74C2
:1018F00000237B6113E00E4B1A6807F10C031046BE
:1019000001211A460B4B04F013FA0346FB74FB7CCF
:10191000002B00D007E0FB687A6913447B617A6989
:101920007B689A42E7DB00BF1837BD4680BD00BF29
:1019300090020020A402002080B586B000AF78603D
:101940000023FB7500233B617868FFF75FFF0346C8
:10195000FB75FB7D002B03D07868FFF7C3FF1BE00E
:1019600016E0134B18687A683B69D11A114B1A6854
:101970003B69134407F10C0204F0DAF90346FB75E6
:10198000FB7D002B00D007E0FB683A6913443B6104
:101990003A697B689A42E4DBFB7D002B02D1054B60
:1019A0001B6800E0002318461837BD4680BD00BF05
:1019B000900200209802002080B584B000AF7860CB
:1019C0000023FB6011E0F86801F0C2F80F4B1B78B0
:1019D000002B03D0F868796800F032FBF86879686A
:1019E00001F034F8FB680133FB60FB68012BEADD92
:1019F000074B00221A70074B00221A70064B1B6817
:101A0000184604F00FF91037BD4680BDA50200202E
:101A10008B0200208C0200209002002080B584B050
:101A200000AF78600D4B00221A700D4B00221A7027
:101A30000023FB6006E0F868796801F0ADFAFB6806
:101A40000133FB60FB68012BF5DD064B1B68184674
:101A500004F0CCF91037BD4680BD00BF8B020020DA
:101A60008C0200209002002080B58EB000AF78601C
:101A700000237B63002387F833307B689B681B68F7
:101A8000BB62BB6A5B687B62BB6A1B683B621023FC
:101A9000FB6008233B61504B196807F10C0207F10A
:101AA00014030846082104F075F9034687F833301B
:101AB00097F83330002B40F085807B69082B40F08D
:101AC0008180BB6A1B680833FB61FB699B00BB61BB
:101AD000BB69184606F0EAF903467B637B6B002B73
:101AE00003D1012387F833306CE01023FB60BB691E
:101AF0003B61394B196807F10C0207F114030846E2
:101B0000082104F047F9034687F8333097F833305B
:101B1000002B57D17B69082B54D17B685B681A680E
:101B20007B6B1A607B6B04337A68526852681A6068
:101B30007B6B08337A68526892681A607B6B0C334F
:101B40007A685268D2681A607B6B103300221A6080
:101B50007B6B143304221A607B6B18331F4A127894
:101B6000D2B21A607B6B1C333A6A1A600023FB62A4
:101B70000DE0FB6A08339B007A6B1344FA6A92000B
:101B8000796A0A4412681A60FB6A0133FB62FA6AD6
:101B90003B6A9A42EDDB104B1A6807F114031046BA
:101BA000B9697A6B04F0F6F8034687F8333097F892
:101BB0003330002B06D17A69BB699A4202D1084BB7
:101BC00001221A70786B06F079F997F833301846CD
:101BD0003837BD4680BD00BF900200207C01002048
:101BE0008C02002080B586B000AF03463960FB71DF
:101BF0000023FB75FB79BB603B68FB600C4B1968ED
:101C000007F1080207F110030846082104F0C2F8A2
:101C10000346FB75FB7D002B02D13B69082B02D0EC
:101C20000123FB7500BFFB7D18461837BD4680BDFC
:101C30009002002080B584B000AF78603960002346
:101C4000FB730D4B1A6807F10803104639687A6870
:101C500004F0A0F80346FB73FB7B002B03D1BA68AA
:101C60003B689A4202D00123FB7300BFFB7B1846FE
:101C70001037BD4680BD00BF9002002080B586B001
:101C800000AF0346B9607A60FB730023FB75FB7BF2
:101C90001846B968FFF7A6FF0346FB75FB7D002BCE
:101CA00000D00CE07B68002B09D07868B968FFF79A
:101CB000C1FF0346FB75FB7D002B00D000BFFB7D01
:101CC00018461837BD4680BD80B586B000AF0346C4
:101CD0003A60FB710B46BB710023FB75BB79FB605F
:101CE0003B683B61FA7907F10C03104608211A465C
:101CF000FFF7C4FF0346FB75FB7D18461837BD464A
:101D000080BD00BF80B586B000AF78603960002329
:101D1000FB753868FFF710FE38613B69002B0BD16B
:101D20000123FB6007F10C03122004211A46FFF780
:101D3000A5FF0123FB7512E07868396900F008FC03
:101D40000023FB6007F10C03122004211A46FFF761
:101D500095FF0346FB75FB7D002B00D000BFFB7D8C
:101D600018461837BD4680BD80B592B000AF786088
:101D7000002387F83F307B689B681B68BB63BB6BA5
:101D80001B697B637B6B002B71D07B6B1B683B6398
:101D9000BB6B5B68FB6200233B6400237B641FE03A
:101DA0007B6B5A687B6C1B0113445B68BB62BB6A2C
:101DB0009B00FA6A13441B687B627B6B5A687B6CDE
:101DC0001B011344DB683B627B6A3A6A02FB03F344
:101DD000FB613A6CFB6913443B647B6C01337B64AD
:101DE0007A6C3B6B9A42DBDB1320396CFFF7FAFE0F
:101DF000034687F83F3097F83F30002B00D042E091
:101E000000237B642EE07B6B5A687B6C1B011344C0
:101E10001B68BB617B6B5A687B6C1B0113445B685E
:101E20007B617B699B00FA6A13441B683B617B6B97
:101E30005A687B6C1B011344DB68FB603B69FA68E2
:101E400002FB03F3BB60B869B968FFF7F3FE034612
:101E500087F83F3097F83F30002B00D013E07B6CC1
:101E600001337B647A6C3B6B9A42CCDB0BE0132032
:101E70000021FFF7B7FE034687F83F3097F83F3061
:101E8000002B00D000BF97F83F3018464837BD46BA
:101E900080BD00BF80B588B000AFB9607A603B609C
:101EA0000346FB730023FB777868FFF745FDB861B5
:101EB000BB69002B08D1FB7B184601214FF0FF3294
:101EC000FFF702FF012337E007F114031846B96951
:101ED000042205F0FBFFFB7B1B2B0DD01C2B00D03D
:101EE00014E0BB691A1D7B69B86811461A4600F0F8
:101EF0001FFF0346FB7709E0BB691A1D7B69B868C1
:101F0000396800F055FE0346FB7700BFFB7F002BCE
:101F100008D07B69FA7B104601211A46FFF7D4FEF0
:101F2000FB7F09E07B69FA7B104600211A46FFF728
:101F3000CBFE0346FB77FB7F18462037BD4680BDAE
:101F400080B588B000AF0346B9607A60FB730023A8
:101F5000FB77B868FFF7F0FCB861BB69002B08D1CC
:101F6000FB7B184601214FF0FF32FFF7ADFE012346
:101F700021E007F114031846B969042205F0A6FF11
:101F8000FB7B1D2B07D01E2B00D00AE07B69184677
:101F900001F01CF805E07B691846796800F0AEFF97
:101FA00000BF7B69FA7B104600211A46FFF78CFEC2
:101FB0000346FB77FB7F18462037BD4680BD00BF38
:101FC00080B584B000AF786039600023FB6003F017
:101FD0009BFE0246124B1A60114B1B68002B02D16C
:101FE000104BFB600BE00E4B1B68184679683A6893
:101FF00003F036FEF860FB68002B00D000BFFB68E2
:10200000002B07D0064B1B68184603F087FE044BD5
:1020100000221A60FB6818461037BD4680BD00BF1D
:10202000900200204481000880B500AF034B1B687C
:10203000184603F05DFE0346184680BD900200205E
:1020400080B588B000AF786039600023FB762C4BF8
:102050001B78002B00D149E007F108031846796886
:102060003A6801F013FD3EE00023FB6130E0FA68BE
:10207000FB691B0113447B617B695A687B691B68A0
:1020800010461946FFF7D6FD0346FB76FB7E002B74
:1020900000D02BE07B699B68002B0DDD7B69DA6843
:1020A0007B699B6810461946FFF7C4FD0346FB7623
:1020B000FB7E002B00D019E03A69FB699B001344BA
:1020C0001B681846796800F0B7FFFB690133FB61B4
:1020D000BA68FB699A42CADC07F1080318467968B6
:1020E0003A6801F0D3FCBB68002BBDDCFB7E002B03
:1020F00002D03868FFF792FC2037BD4680BD00BF94
:102100008B02002080B584B000AF78600023FB60B4
:1021100006E0F8687968FFF793FFFB680133FB601E
:10212000FB68012BF5DD1037BD4680BD80B582B060
:1021300000AF0023FB70FB78002B00D016E00E4BA5
:102140001B68184603F04AFD0346FB70FB78002B22
:1021500000D00BE000237B6005E0786800F040FCD5
:102160007B6801337B607B68012BF6DDFB781846CA
:102170000837BD4680BD00BF9002002080B582B008
:1021800000AF78603960054B1B68184679683A687B
:1021900003F020FE0837BD4680BD00BF900200203E
:1021A00080B58CB002AFF860B9607A60002387F820
:1021B0002730002387F826308D4B1B78002B0DD15C
:1021C0008C4B1B6818468A4903F016FD034687F8B6
:1021D000273097F82730002B00D0FBE0844B1B788A
:1021E000002B00D1F6E007F11C0207F11B0310469B
:1021F0001946FFF73BFB034687F8273097F827304F
:10220000002B03D0012387F82630E3E0FB7E002B70
:1022100000D1DFE0784B1B78002B01D10023FB615C
:10222000FB690F2B00F2D58001A252F823F000BF0A
:10223000012300086123000883230008D32300083A
:102240001923000849230008B7220008DB220008F0
:1022500099220008B52300088B230008AD2300084D
:10226000D3230008D3230008D323000871220008D9
:10227000FB68DB68D3E90023C7E9042307F11003F7
:10228000152008211A46FFF7F9FC034687F8273086
:1022900097F82730002B9DE03B6A1D201946BA684D
:1022A000FFF74EFE034687F8273097F82730002BBC
:1022B00000D08FE08EE03B6A1A46504B00931B2003
:1022C000F968BB68FFF7E6FD034687F8273097F803
:1022D0002730002B00D07DE07CE03B6A1A46484B5B
:1022E00000931C20F9684FF0FF33FFF7D3FD03463E
:1022F00087F8273097F82730002B00D06AE069E094
:10230000F868FFF7B1FB034687F8273097F82730C6
:10231000002B00D05EE05DE03B6A002B03D1394B1F
:1023200001221A7056E03B6AF8681946FFF7EAFC8A
:10233000034687F8273097F82730002B00D049E074
:10234000304B01221A7045E0F868FFF70DFD034697
:1023500087F8273097F82730002B00D03AE039E093
:10236000112000210022FFF789FC034687F827305F
:1023700097F82730002B00D02CE0B868FFF71CFB43
:1023800028E0B868FFF74AFB24E01F4B01221A60DF
:10239000162000210022FFF771FC034687F8273042
:1023A00097F82730002B00D014E013E07B6801225F
:1023B0001A700FE03B6A1E201946BA68FFF7C0FD8D
:1023C000034687F8273097F82730002B00D001E02C
:1023D00000E000BF97F82730002B06D097F8263092
:1023E000002B02D0B868FFF719FB2837BD4680BD27
:1023F0008B020020900200208C0200209C02002012
:10240000A00200208D0200208803002080B582B049
:1024100000AF78603960786800F09AFB78683968B6
:10242000FFF70EFE7868396800F010FB074B1B6859
:10243000002B07D0054B1B68184605F03FFD034BEA
:1024400000221A600837BD4680BD00BF98020020F8
:1024500080B584B000AF78600023FB720023FB607E
:1024600006E0F8687968FFF7D1FFFB680133FB608D
:10247000FB68012BF5DD134B1B78002B09D01420D2
:1024800000210022FFF7FAFB0346FB720D4B0022EE
:102490001A700D4B1B78002B05D00B4B00221A70C5
:1024A0000A4B01221A700A4B1B68184603F0C4FB42
:1024B000074B1B68184603F031FCFB7A18461037AF
:1024C000BD4680BD8C0200208B0200207C010020D4
:1024D0009002002080B584B000AF78600023FB60DC
:1024E00006E0F868796801F0B5F9FB680133FB6034
:1024F000FB68012BF5DD1037BD4680BD80B582B08D
:1025000000AF00237B6005E0786801F0EBF97B68A1
:1025100001337B607B68012BF6DD0837BD4680BD4B
:1025200080B586B000AFF86087ED000B00237B61BB
:1025300008E0F86897ED000B796900F01FFF7B69F0
:1025400001337B617B69012BF3DD1837BD4680BD0C
:1025500080B596B000AF786039603B683B6500237A
:10256000FB640123BB6402237B6403233B641023CD
:10257000FB637B689B681B68BB63BB6B1B697B63EE
:10258000BB6B5B683B6307F118031846396D042287
:1025900005F09CFC3B6D04333B6500237B655FE0ED
:1025A000FB6B07F108021046396D1A4605F08EFCE8
:1025B000FB6B3A6D13443B657B6B5A68FB6C9B006D
:1025C00007F158010B4453F8503C1B0113441B689E
:1025D000FB627B6B5A68FB6C9B0007F158010B4454
:1025E00053F8503C1B0113449B68BB623B6C9B003F
:1025F00007F15802134453F8503C9B003A6B1344C4
:102600001B68BA6A002A01D0022200E0012202FB04
:1026100003F37B627B6C9B0007F15802134453F871
:10262000503C7A6A02FB03F33B62BB6C9B0007F1F0
:102630005802134453F8503C7A6A02FB03F31A46DB
:10264000FB6A1344FB613B6AF869396D1A4605F071
:102650003DFC3B6A3A6D13443B657B6D01337B6502
:10266000BB697A6D9A429BDB5837BD4680BD00BF7F
:1026700080B491B000AFF860B9607A60FB689B6885
:102680001B68FB63FB6BDB68BB63FB6B5B687B639B
:1026900000233B630123FB620223BB6203237B62B3
:1026A000BB6B5A683B6B9B00B9680B441B681B01F2
:1026B00013441B683B62BB6B5A683B6B9B00B96859
:1026C0000B441B681B0113449B68FB617B6A9B00E6
:1026D000BA6813441B689B007A6B13441B68FA6941
:1026E000002A01D0022200E0012202FB03F3BB61B9
:1026F000BB6A9B00BA6813441B68BA6902FB03F308
:102700007B61FB6A9B00BA6813441B68BA6902FBD1
:1027100003F33B613B693A6A1A447B681A607B6841
:102720007A695A604437BD465DF8047B704700BF44
:1027300090B593B000AFF860B9607A603B603B68D9
:102740001B683B64002387F83F3007F128031846D5
:10275000396C042205F0BAFB3B6C04333B64FB6824
:102760001A68BB6A9B0013441A687B681A6007F1F9
:102770002C031846396C042205F0A8FB3B6C04338B
:102780003B64BB681846042105F04CFB03461A461F
:102790007B685A607B685B68002B03D1012387F854
:1027A0003F3076E000237B646FE007F12403184696
:1027B000396C042205F08AFB3B6C04333B647B6874
:1027C0005A687B6A9B00D41801200C2105F02AFB73
:1027D000034623607B685A687B6A9B0013441B682E
:1027E000002B03D1012387F83F3052E07B685A6801
:1027F0007B6A9B0013441B687B637B6B1846396CB8
:10280000042205F063FB3B6C04333B647B6B1B6869
:102810001846082105F006FB03461A467B6B5A60F2
:102820007B6B5B68002B04D1012387F83F3000BF2E
:102830002FE00023BB6320E07B6B5A68BB6BDB009F
:1028400013443B6307F114031846396C102205F05A
:102850003DFB3B6C10333B6407F11403F8681946E9
:102860003A6BFFF705FF7B6B9A683B6B5B681A441A
:102870007B6B9A60BB6B0133BB637B6B1A68BB6B72
:102880009A42D9DC7B6C01337B64FB6A7A6C9A4296
:102890008BDB3B683A6C1A6097F83F3018464C3730
:1028A000BD4690BD80B584B000AF7860396000232C
:1028B000FB733B68002B02DA0123FB7325E07B6886
:1028C00001221A603B68002B0EDD3B68184605F0BC
:1028D000EDFA03461A467B689A607B689B68002B7A
:1028E00005D10123FB7310E07B6800229A607B68AE
:1028F0003A685A607B689A687B68DA607B689A6895
:102900007B681A617B6800225A61FB7B184610378E
:10291000BD4680BD80B586B000AF78607A6813464A
:10292000DB009B1A1B012D4A13447B617B6920331A
:102930003B613B693033FB60FB685B68002B07D071
:10294000FB685B68184605F0B9FAFB6800225A601C
:102950003B69DB6B002B07D03B69DB6B184605F04E
:10296000ADFA3B690022DA633B6900221A703B69C9
:1029700000229A603B690022DA603B6900221A61FA
:102980003B6901225A613B6900229A6139694FF023
:1029900000024FF00003C1E908233B6900229A625C
:1029A0003B690022DA623B6900221A633B6900221C
:1029B0005A633B6900229A633B690022DA633B69F0
:1029C00000221A643B6900225A643B6900229A641F
:1029D0003B690022DA641837BD4680BDA80200209A
:1029E00080B584B000AF78607A681346DB009B1A2C
:1029F0001B01144A1344FB60134A7B6813441B7881
:102A0000002B09D0F8680021702205F06AFA0E4AFE
:102A10007B68134400221A70FB6800225A60FB682E
:102A200000229A60FB680022DA60FB6800229A614B
:102A3000FB6800225A617868FFF76CFF1037BD46CB
:102A400080BD00BFA80200207801002080B586B0BC
:102A500000AF786039607A681346DB009B1A1B016F
:102A60003A4A1344FB60FB685B68002B00D16AE0C4
:102A700000237B612EE0FB689A687B69DB001344CE
:102A80005B68BB6000233B611AE03B699B00BA684E
:102A900013441B68002B10D03B699B00BA68134499
:102AA0001B685B68184605F009FA3B699B00BA6829
:102AB00013441B68184605F001FA3B6901333B617A
:102AC0003A693B689A42E0DBB86805F0F7F97B6940
:102AD00001337B61FB685A687B699A42CBDCFB68F7
:102AE0009B68184605F0EAF9FB68DB68002B1AD0F2
:102AF00000237B610EE0FB68D9687A691346DB002E
:102B00009B1A9B000B449B68184605F0D7F97B691C
:102B100001337B617A693B689A42ECDBFB68DB68D6
:102B2000184605F0CBF9FB689B69184605F0C6F915
:102B3000FB685B69184605F0C1F97868FFF7EAFEA3
:102B40007868FFF74DFF1837BD4680BDA80200200A
:102B500080B485B000AF78607A681346DB009B1ABA
:102B60001B01124A1344FB60FB6893F82030052BCD
:102B700017D801A252F823F0A32B0008A32B0008BA
:102B8000A32B0008A32B0008912B0008912B000811
:102B9000FB68052283F82020FB684FF0FF32DA62E1
:102BA00000BF1437BD465DF8047B7047A8020020C3
:102BB00080B58AB000AFF860B9607A603B600023EE
:102BC000FB777B687B613A681346DB009B1A1B012D
:102BD000564A1344BB61BB693A681A603868B968E1
:102BE000FFF734FFBB691A1D7B69104619460422A2
:102BF00005F06CF97B6904337B61BB695B6818463F
:102C0000082105F00FF903461A46BB699A60BB69B3
:102C10009B68002B02D10123FB777AE000233B6203
:102C200013E0BB699A683B6ADB001A4407F114039E
:102C3000F868B968FFF77CFD0346FB77FB7F002B44
:102C400000D066E03B6A01333B62BB695A683B6A6D
:102C50009A42E6DCBB6818461C2105F0E3F80346FF
:102C60001A46BB69DA6000237B6200233B6229E0DD
:102C70007B6907F1100210461946042205F026F977
:102C80007B6904337B61BB69D9683A6A1346DB0010
:102C90009B1A9B00CA183B6910461946FFF702FEB3
:102CA0000346FB77FB7F002B33D13B69002B14BF1E
:102CB00001230023DBB21A467B6A13447B623B6A22
:102CC00001333B623A6ABB689A42D1DBBB6900229E
:102CD0001A617B6A1B01184605F0E8F803461A469C
:102CE000BB699A61BB699B69002B02D10123FB7709
:102CF0000FE07B6A9B00184605F0D8F803461A4699
:102D0000BB695A61BB695B69002B02D10123FB7768
:102D100000BFFB7F002B03D03868B968FFF796FE31
:102D2000FB7F18462837BD4680BD00BFA8020020A3
:102D300080B592B000AFF860B9607A60002387F880
:102D40004730BB683B647A681346DB009B1A1B0163
:102D50002033694A1344BB6307F128031846396CD2
:102D6000042205F0B3F83B6C04333B64BA6ABB6BD6
:102D70005A60BB6B08331846396C042205F0A6F87C
:102D80003B6C04333B64BB6B0C331846396C042238
:102D900005F09CF83B6C04333B64BB6B1033184666
:102DA000396C042205F092F83B6C04333B64BB6B36
:102DB00030331846396C042205F088F83B6C043334
:102DC0003B64BB6B1B6B7B637B6B002B4DDDBB6B79
:102DD00030333B637B6BDB00184605F067F8034636
:102DE0001A463B6B5A603B6B5B68002B03D1012397
:102DF00087F8473073E00023FB6320E03B6B5A68A1
:102E0000FB6BDB001344FB6207F114031846396CBB
:102E1000102205F05BF83B6C10333B6407F11403A0
:102E2000F8681946FA6AFFF723FC3B6B9A68FB6A5D
:102E30005B681A443B6B9A60FB6B0133FB633B6B33
:102E40001A68FB6B9A42D9DC3B6B9B68184605F00D
:102E50002DF803461A46BB6BDA63BB6BDB6B002BAA
:102E600003D1012387F8473039E007F124031846DE
:102E7000396C042205F02AF83B6C04333B647B6A0E
:102E8000002B02D07B6A022B01D1012200E000223C
:102E9000BB6B5A617B6A012B02D07B6A022B01D18A
:102EA000012200E00022BB6B9A61BB6B2033184605
:102EB000396C082205F00AF83B6C08333B64BB6BA5
:102EC0001B69002B08DABB6B1B695A42BB6B5A6447
:102ED000BB6B00221A6102E0BB6B00225A6497F8B8
:102EE0004730002B02D07868FFF714FD97F8473081
:102EF00018464837BD4680BDA802002080B487B080
:102F000000AF786039607A681346DB009B1A1B01BA
:102F10001F4A13443B611F4B00221A703B69002279
:102F2000DA6400237B611DE03B69D9687A69134646
:102F3000DB009B1A9B000B44FB60FB685B68002B6B
:102F40000DDDFB689A68FB68DA60FB689A68FB68CD
:102F50001A61FB6800225A61FB6801221A607B69D2
:102F600001337B617A693B689A42DDDB3B69002271
:102F70009A643B6900221A663B6900229A663B69A3
:102F8000022283F820201C37BD465DF8047B704781
:102F9000A8020020A502002080B584B000AF7860B0
:102FA00039607A681346DB009B1A1B01064A1344FA
:102FB000FB60FB68002283F8202078683968FFF7FF
:102FC00045FD1037BD4680BDA802002080B485B005
:102FD00000AF78607A681346DB009B1A1B01154A24
:102FE0001344FB60FB6893F82030052B1CD801A22A
:102FF00052F823F0293000080D3000080D30000889
:103000000D3000080D3000081F300008FB684FF03D
:10301000FF32DA62FB68052283F8202004E0FB68B7
:103020004FF0FF32DA6200BF1437BD465DF8047B13
:10303000704700BFA802002080B485B000AF786060
:1030400039603A681346DB009B1A1B01114A13448E
:10305000FB60FB68D9687A681346DB009B1A9B000B
:103060000B44BB600C4B01221A70BB685A69BB68E9
:103070001A61BB681A69BB68DB689A420CBF0123FE
:103080000023DBB21A46BB681A601437BD465DF8F0
:10309000047B7047A8020020A502002080B489B0FC
:1030A00000AFF860B9607A603B600023FB77FB6893
:1030B0009B68FA6852681344BB617B681A68FB68B6
:1030C0001B699A4203D8FB681B68002B4FD0BB6971
:1030D0007A6812689A1AFB681B691946FB689B6834
:1030E000CB1A13447B617A69BB689A4202DA0123E6
:1030F000FB775DE07B681A68BB681A44BB699A423B
:1031000013D23B68BA681A607B681A683B685A60D9
:103110003B6800229A603B680022DA607B681A688C
:10312000BB681A447B681A6042E0BB697A6812681F
:103130009A1A3B681A607B681A683B685A603B6859
:103140001B68BA68D21A3B689A603B689B68002B80
:1031500002DDFB689B6800E000233A68D360FB68EF
:103160009B683A6892681A447B681A6020E0FB68A2
:103170001B691A467B681B68D31A7B617A69BB6836
:103180009A4202DA0123FB7712E03B68BA681A60C0
:103190007B681A683B685A603B6800229A603B680B
:1031A0000022DA607B681A68BB681A447B681A6080
:1031B000FB7F18462437BD465DF8047B704700BF8F
:1031C00080B58EB000AF78607A681346DB009B1A3A
:1031D0001B01694A1344BB62BB6A20337B627B6A72
:1031E000DB6B3B623B6A3B6300237B63B6E07B6A3D
:1031F0005A6B7B6BDB001344FB61FB695B68DB088C
:10320000BB617B6A1B6C002B00F097807B6AD3E963
:103210000823C7E90423FB691B68FB600023FB62EA
:1032200086E07B6A5B69002B3DD0FB6ADB00FA68B5
:103230001344D3E9002310461946D7E9042304F0C8
:103240008DFD0346002B0ED0FB6ADB003A6B134466
:10325000D3E9002310461946D7E9042304F06AFD98
:103260000346002B1DD1FB6ADB00FA681344D3E947
:10327000002310461946D7E9042304F079FD0346DC
:10328000002B10D0FB6ADB003A6B1344D3E9002318
:1032900010461946D7E9042304F042FD0346002BEB
:1032A00001D0012364E07B6A9B69002B3DD0FB6A5F
:1032B000DB00FA681344D3E9002310461946D7E926
:1032C000042304F037FD0346002B0ED0FB6ADB001D
:1032D0003A6B1344D3E9002310461946D7E9042377
:1032E00004F03CFD0346002B1DD1FB6ADB00FA68AD
:1032F0001344D3E9002310461946D7E9042304F008
:103300000FFD0346002B10D0FB6ADB003A6B134421
:10331000D3E9002310461946D7E9042304F028FD19
:103320000346002B01D0012322E0FB6A0133FB623C
:10333000FA6ABB699A42FFF674AFFB691A68FB69C7
:103340005B68386B11461A4604F0C0FDBB69DB00B0
:103350003A6B13443B637B6B01337B637B6A1A6B71
:103360007B6B9A423FF743AF7B6A01221A640023CA
:1033700018463837BD4680BDA802002090B5ABB0D6
:1033800000AFF86087ED000BB960BA681346DB0048
:103390009B1A1B01BC4A1344C7F89C300023C7F892
:1033A000A430D7F89C302033C7F89830D7F89C3039
:1033B000D968FA681346DB009B1A9B000B44C7F8D8
:1033C0009430D7F898301B78022B2DD1D7F898304D
:1033D0001B6B002B04D1D7F8983004221A7023E01D
:1033E000D7F898305A68FB689A421DD1B868FFF741
:1033F000E7FE0346002B17D0D7F898301B69002B47
:103400000AD1D7F8983004221A70D7F898309A6CFD
:10341000D7F898309A6207E0D7F8983003221A70EC
:10342000D7F8983001229A62D7F898301B78022B8F
:1034300006D1D7F898305B6C002B01DD012300E04A
:103440000023C7F89030D7F898301B78042B04D0AD
:10345000D7F89030002B00F0EA81D7F894305B6801
:10346000002B00F0E481D7F89430DB68BB620023C6
:10347000C7F88C300123C7F888300223C7F884309E
:103480000323C7F880300423FB6700237B610023FC
:10349000BB610023FB6100233B6200237B62FB6F67
:1034A0009B0007F1A8021344BA6843F8942CD7F89C
:1034B0009030002B3FD0D7F898309A6CD7F89830DE
:1034C0005B6C9A4237D1D7F894309B68D7F8942038
:1034D00052681344BB67D7F894301B6904337B6789
:1034E00007F110031846796F042204F0EFFC3B69E2
:1034F00008333B61D7F894301B693A691A44D7F80E
:1035000094301A61D7F894301B691A46BB6FD31AEE
:103510003B673B6F002B07DBD7F894309A683B6F13
:103520001A44D7F894301A61D7F898309B6C5A1E19
:10353000D7F898309A641423FB6607F1280207F144
:103540002C03D7F89400F96EFFF7A8FD0346C7F8DF
:10355000A430D7F8A430002B00D068E1FB6E083B04
:10356000FB66D7F888309B0007F1A802134453F894
:10357000942CFB6E1A44D7F888309B0007F1A80101
:103580000B4443F8942C07F1280207F13C03D7F8C9
:1035900094000821FFF782FD0346C7F8A430D7F84E
:1035A000A430002B00D042E1D7F888309B0007F10F
:1035B000A802134453F8943C08331A46D7F88830CD
:1035C0009B0007F1A8010B4443F8942C3A6CFB6B69
:1035D0001C463B4610461946224604F077FCBB6C5D
:1035E000002B0AD0FB6B1A463B461344BB66BB6CF0
:1035F0007A6C1846B96E04F069FC0023FB64C6E0DF
:10360000D7F89C309A68FB6CDB0013447B667B6EBA
:103610001B681B78002B00F0B7807B6E1B681B7843
:103620005BB2032B00F0B0807B6E5A68FB689B0096
:1036300013441B683B663B6E002B00F0A580D7F857
:1036400084309B0007F1A802134453F8943C5A1CA1
:10365000D7F884309B0007F1A8010B4443F8942C61
:103660000423FB6607F1280207F13C03D7F8940016
:10367000F96EFFF713FD0346C7F8A430D7F8A4305E
:10368000002B03D0D3E000BFA8020020D7F8883079
:103690009B0007F1A802134453F8942CFB6E1A44C4
:1036A000D7F888309B0007F1A8010B4443F8942C0D
:1036B0003A6CFB6B1C4607F14C0310461946224638
:1036C00004F004FCBB6C002B0BD0FB6B1A4607F11B
:1036D0004C031344FB65BB6C7A6C1846F96D04F01F
:1036E000F5FB0023C7F8A03048E03B6E5A68D7F8D6
:1036F000A030DB001344BB65BB6D596807F128029D
:1037000007F13C03D7F89400FFF7C8FC0346C7F85D
:10371000A430D7F8A430002B00D088E0D7F8883048
:103720009B0007F1A802134453F8942CBB6D5B680F
:103730001A44D7F888309B0007F1A8010B4443F8DE
:10374000942C3A6CBB6D1B68F96B0C4610461946FD
:10375000224604F0BBFBBB6C002B0AD0BB6D1B6880
:10376000FA6B13447B65BB6C7A6C1846796D04F078
:10377000ADFBD7F8A0300133C7F8A0303B6E1A6814
:10378000D7F8A0309A42B0DCFB6C0133FB64D7F869
:103790009C305A68FB6C9A423FF732AFD7F88430BE
:1037A0009B0007F1A802134453F8943C002B00D16E
:1037B0003DE0D7F88C309B0007F1A80213441A2291
:1037C00043F8942CD7F880309B0007F1A8021344EB
:1037D000FA6843F8942C3A6BFB6A1C4607F1140311
:1037E00010461946224604F071FBBB6B002B0BD030
:1037F000FB6A1A4607F1140313443B65BB6B7A6BF3
:103800001846396D04F062FBBA6AD7F89430DA6072
:10381000D7F8943000221A60D7F89030002B06D0E9
:10382000D7F898309B6C5A1CD7F898309A64D7F820
:103830009030002B0BD1D7F8A430002B07D0D7F84D
:1038400098300122DA62D7F8983005221A70AC3726
:10385000BD4690BD80B584B000AF786039607A68AD
:103860001346DB009B1A1B011D4A1344FB60FB68D7
:103870002033BB60BB681B78002B00D12DE0BB68F8
:103880001B78012B0ED1BB689B6A591CBA689162E8
:10389000BA68D268934204D178683968FFF72EFB82
:1038A00000E01AE0BB681B78032B16D1BB689B6A4B
:1038B000591CBA689162BA68126993420DDBBB6801
:1038C0009A6CBB689A62BB6804221A70BB685B6C16
:1038D000002B02DDBB680122DA641037BD4680BDD3
:1038E000A802002080B485B000AF78607A681346E3
:1038F000DB009B1A1B01114A1344FB60FB68203359
:10390000BB60BB681B78002B00D111E0BB681B7843
:10391000042B0DD1BB689B6A5A1CBB689A62BB68BA
:103920009A6ABB689B689A4202D1BB6805221A70EA
:103930001437BD465DF8047B704700BFA802002025
:1039400080B48DB000AFF860B9607A60BA68134691
:10395000DB009B1A1B013B4A1344BB62BB6A10335A
:103960007B627B6A00221A600023FB6255E0BB6A1F
:10397000D968FA6A1346DB009B1A9B000B443B6232
:103980003B6A1B68002B45D13B6A1B69FB613B6AA4
:103990005B68BB613B6ADB687B617B6A9A687B6AB8
:1039A0001B681B0113443B617B6A5A687B6A1B6876
:1039B0009B001344FA6A1A607B6A1B685A1C7B6A74
:1039C0001A603B69FA695A603B6A7A695A617A6996
:1039D000FB699A420BD97A69FB69D21A3B691A6072
:1039E0003B6900229A603B690022DA6012E03B6A80
:1039F0009A68BB6913441A46FB69D21A3B691A607C
:103A00007B693A6A92689A1A3B699A603B6A9A683B
:103A10003B69DA60FB6A0133FB62FA6A7B689A42AF
:103A2000A5DB7B6A1A68FB681A607B6A9A68FB6888
:103A30005A607B6A5A68FB689A603437BD465DF805
:103A4000047B7047A802002080B485B000AF786086
:103A500039603A681346DB009B1A1B010A4A13447B
:103A6000FB60FB681033BB60BB6800221A60BB6858
:103A70001A687B681A607B6800225A601437BD465A
:103A80005DF8047B704700BFA802002080B586B0B7
:103A900000AFF860B9607A60BA681346DB009B1A21
:103AA0001B01264A13447B617B6920333B613B69E0
:103AB0001B78042B03D03B691B78052B36D1BB68E0
:103AC000F8681946FFF7C0FFBB68F86819467A68BE
:103AD000FFF736FFFB681B68002B26D13B691B787C
:103AE000052B22D1164B00221A703B69DB68B3F11B
:103AF000FF3F0CD107F10803202004211A46FEF7EE
:103B0000BDF8BB6818467968FFF746FA0DE007F183
:103B100008031F2004211A46FEF7B0F83B69002273
:103B20009A623B6901221A7005E004E0BB68F868FC
:103B30001946FFF789FF1837BD4680BDA80200204F
:103B4000A502002080B584B000AFF860B9607A604B
:103B5000FEF76AFA0346002B14D00BE000200F4951
:103B6000FEF70CFBF868B9687A68FEF719FBB868CD
:103B7000FEF7C8FA0A4B1B68002B03D17B681B7841
:103B8000002BEBD0074B1B78DBB2042B02D0054B8C
:103B900003221A701037BD4680BD00BFD8B805009B
:103BA000880300207C01002080B584B000AFF8605D
:103BB000B9607A60074B1B78DBB2042B07D0F8683A
:103BC000B9687A68FEF7ECFAB868FEF79BFA103726
:103BD000BD4680BD7C01002080B584B000AFF86098
:103BE00087ED000BF86897ED000BFEF799FC103796
:103BF000BD4680BD80B500AFFEF780FC80BD00BF34
:103C000080B582B000AF78607868FEF763FC083753
:103C1000BD4680BD80B582B000AF7860FEF786FA01
:103C20000837BD4680BD00BF80B582B000AF786068
:103C30007868FEF70DFC0837BD4680BDB0B582B090
:103C400000AF7860124BD3E90023104619464FF0BD
:103C500000024FF0000304F081F80346002B0ED160
:103C60000B4BD3E900234FF000040A4D10461946D0
:103C700022462B4604F054F80346002B05D0044B93
:103C8000D3E900237968C1E900230837BD46B0BDF8
:103C9000800100200000F0BF80B582B000AF7860E6
:103CA0007868FFF7CBFF0837BD4680BD80B582B08E
:103CB00000AF7860396000200021FEF781F90837F5
:103CC000BD4680BD80B400AFBD465DF8047B704743
:103CD00080B58AB000AFF860B9607A6000237B627B
:103CE000BB683B624FF0FF33FB611BE07A68FB6906
:103CF000934228BF1346BB6107F11403F868396A81
:103D0000BA6902F0C7F878627B6AB3F1FF3F01D16C
:103D10007B6A0BE07B697A68D31A7B607B693A6ABD
:103D200013443B627B68002BE0D17B6A184628373E
:103D3000BD4680BD80B58AB000AFF860B9607A60DA
:103D400000237B62BB683B624FF0FF33FB611BE0EB
:103D50007A68FB69934228BF1346BB6107F11403DD
:103D6000F868396ABA6902F0E9F878627B6AB3F1F7
:103D7000FF3F01D17B6A0BE07B697A68D31A7B60D5
:103D80007B693A6A13443B627B68002BE0D17B6A13
:103D900018462837BD4680BD80B584B000AFF860B6
:103DA000B9607A603B603B6AD3E90023104619464C
:103DB0004FF000022E4B03F0B3FF0346002B53D00D
:103DC0007B6A1B78002B14BF01230023DBB218464B
:103DD000FDF752FB03461A46FB681A807B6A1B7884
:103DE000002B14BF01230023DBB21846FDF760FB54
:103DF00003461A46BB681A807B6A1B78002B14BFE7
:103E000001230023DBB21846FDF76EFB03461A467A
:103E10007B681A807B6A1B78002B14BF0123002368
:103E2000DBB21846FDF77CFB03461A463B681A8056
:103E30007B6A1B78002B14BF01230023DBB21846DA
:103E4000FDF78AFB03461A46BB691A807B6A1B781A
:103E5000002B14BF01230023DBB21846FDF798FBAB
:103E600003461A46FB691A801037BD4680BD00BF65
:103E70000000F03F80B586B000AFF860B9607A60AE
:103E80003B60BB6AD3E90023104619464FF000029D
:103E9000234B03F045FF0346002B3DD10023FB7568
:103EA0007B6B1B682C2B19D02C2B06D80A2B1BD014
:103EB000152B16D0052B1AD01CE0B82B08D0B3F563
:103EC000827F02D05E2B06D014E00023FB7511E048
:103ED0000123FB750EE00223FB750BE00323FB754A
:103EE00008E00423FB7505E00523FB7502E00623CB
:103EF000FB7500BFFB6A1B78002B14BF0123002356
:103F0000DAB2FB7D10461946FDF790FAB96A4FF018
:103F10000002034BC1E900231837BD4680BD00BF36
:103F20000000F03FB0B590B000AFF860B9607A60C3
:103F30003B60BB6ED3E90023104619464FF00002E8
:103F40009B4B03F0EDFE0346002B00F04883FB681B
:103F50001B881BB207EE903AF8EEE77A9FED957A50
:103F600067EE877A9FED947A77EE877AC7ED0F7ABE
:103F70007B6D1B881BB207EE903AF8EEE77A9FED57
:103F80008F7A67EE877A9FED8E7A77EE877AC7ED24
:103F90000E7A3B681B881BB207EE903AF8EEE77A80
:103FA0009FED887A67EE877A9FED877A77EE877A3A
:103FB000C7ED0D7A3B6D1B881BB207EE903AF8EE09
:103FC000E77A9FED827A67EE877A9FED817A77EEC6
:103FD000877AC7ED0C7ABB681B881BB24F3B07EE94
:103FE000903AF8EEE77A9FED7B7A67EE877A9FED5D
:103FF0007A7A67EE877AC7ED0B7A7B681B881BB2EB
:10400000A13B07EE903AF8EEE77A9FED727A67EE01
:10401000877A9FED717A67EE877AC7ED0A7A97ED16
:104020000B7AD7ED0A7A77EE277AB0EE007AC7EEF0
:10403000877A7B6EC3ED007AD7ED0E7A9FED677AB3
:1040400067EE877A97ED0F7A77EE677A17EE900A28
:1040500003F0AAFB04460D46D7ED0C7A9FED5F7A7C
:1040600067EE877A97ED0D7A77EE677A17EE900A0A
:1040700003F09AFB02460B4645EC104B43EC112B28
:1040800002F05CFF53EC102B1046194603F07AFE49
:10409000034607EE903AF1EE677ABB6DC3ED007A06
:1040A0004F4B1B78002B03D0BB6D1B684D4A136030
:1040B000FB6E93ED007A7B6ED3ED007A67EE277A84
:1040C000C7ED097A474B93ED007AD7ED097A77EE81
:1040D000277A9FED457A27EE877ABB6DD3ED007A7C
:1040E000DFED426A67EEA67A77EE277AFB6DC3EDC5
:1040F000007AFB6D1B683B4A1360394B1B78002B21
:104100003ED0374B00221A70BB6D1A683B6E1A60A6
:104110007B6E1B68364A13607B6E1B68344A5360A3
:104120007B6E1B68324A93607B6E1B68304AD3609B
:104130007B6E1B682E4A13617B6E1B682C4A536191
:104140007B6E1B682A4A9361BB6D1B68294A13600A
:10415000BB6D1B68274A5360BB6D1B68254A936083
:10416000BB6D1B68234AD360BB6D1B68214A13617A
:10417000BB6D1B681F4A5361BB6D1B681D4A936171
:104180001D4B1B68BA6D12681A499B000B441A60DC
:10419000194B1B687A6E126815499B000B441A6014
:1041A000154B1B68062B29D0134B1B68013326E0E7
:1041B0000000F03FC61B74B8FD6A0E3DD118F7B978
:1041C00031082C3EF73622BAC286273E9D9C21BA82
:1041D000807D743D6C09F9BB295C8F3CEBE2124099
:1041E000880100208C03002048E17A3F0AD7A33CD5
:1041F00090030020AC030020C80300200023DD4A08
:104200001360DD4B93ED007ADB4BD3ED017A37EE93
:10421000277AD94BD3ED027A37EE277AD64BD3EDF6
:10422000037A37EE277AD44BD3ED047A37EE277A28
:10423000D14BD3ED057A37EE277ACF4BD3ED067A03
:1042400077EE277AB1EE0C7AC7EE877AC7ED087A57
:10425000FB6E93ED007AC84BD3ED006AD7ED087A78
:1042600076EEE77A27EE277AFB6ED3ED006AC24B33
:1042700093ED006AD7ED087A76EE677A66EEA77A54
:1042800027EE277AFB6ED3ED006ABB4B93ED016AF4
:10429000D7ED087A76EE677A66EEA76AFB6E93ED45
:1042A000006AB54BD3ED015AD7ED087A75EEE77A7F
:1042B00066EE277A66EEA77A37EE277AFB6ED3EDA5
:1042C000006AAD4B93ED026AD7ED087A76EE677A15
:1042D00066EEA76AFB6E93ED006AA74BD3ED025A18
:1042E000D7ED087A75EEE77A66EE277A66EEA77A5A
:1042F00037EE277AFB6ED3ED006A9F4B93ED036A8E
:10430000D7ED087A76EE677A66EEA76AFB6E93EDD4
:10431000006A994BD3ED035AD7ED087A75EEE77A28
:1043200066EE277A66EEA77A37EE277AFB6ED3ED34
:10433000006A914B93ED046AD7ED087A76EE677ABE
:1043400066EEA76AFB6E93ED006A8B4BD3ED045AC1
:10435000D7ED087A75EEE77A66EE277A66EEA77AE9
:1043600037EE277AFB6ED3ED006A834B93ED056A37
:10437000D7ED087A76EE677A66EEA76AFB6E93ED64
:10438000006A7D4BD3ED055AD7ED087A75EEE77AD2
:1043900066EE277A66EEA77A37EE277AFB6ED3EDC4
:1043A000006A754B93ED066AD7ED087A76EE677A68
:1043B00066EEA76AFB6E93ED006A6F4BD3ED065A6B
:1043C000D7ED087A75EEE77A66EE277A66EEA77A79
:1043D00077EE277AB1EE0C7AC7EE877AC7ED077AC7
:1043E000664B93ED007A654BD3ED017A37EE277A71
:1043F000624BD3ED027A37EE277A604BD3ED037A26
:1044000037EE277A5D4BD3ED047A37EE277A5B4B94
:10441000D3ED057A37EE277A584BD3ED067A77EE4F
:10442000277AB1EE0C7AC7EE877AC7ED067A534B3E
:1044300093ED007AD7ED067A37EE677A4F4BD3EDDE
:10444000006AD7ED067A76EEE77A27EE277A4B4BAD
:10445000D3ED016AD7ED067A76EEE76A474B93ED26
:10446000016AD7ED067A76EE677A66EEA77A37EEBE
:10447000277A424BD3ED026AD7ED067A76EEE76AE9
:104480003E4B93ED026AD7ED067A76EE677A66EEDA
:10449000A77A37EE277A394BD3ED036AD7ED067A40
:1044A00076EEE76A354B93ED036AD7ED067A76EE42
:1044B000677A66EEA77A37EE277A304BD3ED046A37
:1044C000D7ED067A76EEE76A2C4B93ED046AD7EDCA
:1044D000067A76EE677A66EEA77A37EE277A274B6A
:1044E000D3ED056AD7ED067A76EEE76A234B93EDB6
:1044F000056AD7ED067A76EE677A66EEA77A37EE2A
:10450000277A1E4BD3ED066AD7ED067A76EEE76A78
:104510001A4B93ED066AD7ED067A76EE677A66EE69
:10452000A77A77EE277AB1EE0C7AC7EE877AC7EDD5
:10453000057A3B6E93ED007A7B6ED3ED006AFB6EDD
:10454000D3ED007A66EEA77A77EE277A3B6EC3ED5D
:10455000007A0B4B93ED007AD7ED077A77EE277A46
:10456000074BC3ED007A064B93ED007A044BD3ED75
:10457000006A07E0C803002090030020AC0300207D
:104580008C010020D7ED057A76EEA77AC7EE277A60
:10459000144BC3ED007A3B6E93ED007ABB6DD3ED07
:1045A000006A3B6ED3ED007A76EEE76A0D4BD3EDF1
:1045B000007A66EEA77A77EE277A3B6EC3ED007A33
:1045C000084BD3ED007AB7EE007A37EE677A064BE8
:1045D000D3ED007A67EE277A034BC3ED007A4037BC
:1045E000BD46B0BDCC0300208C01002080B584B056
:1045F00000AFF860B9607A603B603B6BD3E90023A1
:10460000104619464FF00002074B03F089FB0346A2
:10461000002B05D1396B4FF00002034BC1E9002399
:104620001037BD4680BD00BF0000F03F80B582B0AE
:1046300000AF7860FCF746F903469AB27B681A80AF
:104640000837BD4680BD00BF80B582B000AF78603E
:1046500039607B681B7818463968FCF7FFF8083723
:10466000BD4680BD80B400AFBD465DF8047B704799
:1046700080B582B000AF104B7B60104B3B6007E011
:104680003B681A1D3A607A68111D796012681A60D9
:104690003B680B4A9342F3D30A480B494FF00002A0
:1046A0008842B8BF40F8042BFADB00F087F8FBF72C
:1046B00099FD0837BD4680BD00820008000000203B
:1046C0002C020020300200205411002080B400AFE2
:1046D000FEE700BF80B483B000AF7860FEE700BFA4
:1046E00080B485B000AF7860134B1B68002B02D1FB
:1046F000114B124A1A60104B1B68FB600E4B1B6873
:104700001A467B681344073323F00703BB60BB687A
:104710000B4A934205D30B4B0C221A604FF0FF3328
:1047200003E0054ABB681360FB6818461437BD46B2
:104730005DF8047B704700BFD003002040200010CC
:10474000000001105011002080B483B000AF034678
:104750003960FB7197F90730002B0BDA0D49FB79B3
:1047600003F00F03043B3A68D2B21201D2B20B44F9
:104770001A7609E0084997F907303A68D2B212016F
:10478000D2B20B4483F800230C37BD465DF8047B9E
:10479000704700BF00ED00E000E100E080B500AF31
:1047A000054A054B5B6943F4007353616FF00400E5
:1047B0000021FFF7C9FF80BD00ED00E080B500AF2C
:1047C000154A154BD3F8883043F47003C2F888308B
:1047D000124A124B1B6843F0010313600F4B002277
:1047E0009A600E4A0D4B1B6823F0847323F48033C8
:1047F00013600A4B0A4A5A60084A084B1B6823F4A4
:1048000080231360054B0022DA6000F087F8024B2A
:104810004FF000629A6080BD00ED00E00038024079
:104820001030002480B487B000AF00233B61002328
:104830007B610223FB600023BB6002237B60324B61
:104840009B6803F00C033B613B69042B07D0082BEA
:1048500009D0002B3FD12D4B2D4A1A603FE02B4B46
:104860002C4A1A603BE0284B5B6803F480039B0DE5
:10487000BB60254B5B6803F03F037B60BB68002B8C
:104880000DD0244A7B68B2FBF3F21F4B596847F600
:10489000C0730B409B0903FB02F37B610CE01C4AD5
:1048A0007B68B2FBF3F2184B596847F6C0730B40B4
:1048B0009B0903FB02F37B61134B5B6803F44033FA
:1048C0001B0C01335B00FB607A69FB68B2FBF3F3FE
:1048D0000E4A136003E00D4B0D4A1A6000BF0A4BED
:1048E0009B6803F0F0031B090B4AD35CDBB23B610E
:1048F000064B1A683B6922FA03F3044A13601C371B
:10490000BD465DF8047B70470038024090010020EE
:104910000024F40000127A009401002080B483B0D7
:1049200000AF00237B6000233B60354A344B1B689B
:1049300043F480331360324B1B6803F400333B6055
:104940007B6801337B603B68002B03D17B68B3F548
:10495000A06FF0D12A4B1B6803F40033002B02D068
:1049600001233B6001E000233B603B68012B42D107
:10497000234A234B1B6C43F080531364214A214B81
:104980001B6843F4804313601D4A1D4B9B68936072
:104990001B4A1B4B9B6843F400439360184A184B17
:1049A0009B6843F4A0539360154B174A5A60144A0E
:1049B000134B1B6843F08073136000BF104B1B68E0
:1049C00003F00073002BF9D0104B40F205621A601F
:1049D0000B4A0B4B9B6823F003039360084A084B78
:1049E0009B6843F00203936000BF054B9B6803F094
:1049F0000C03082BF9D10C37BD465DF8047B7047DA
:104A0000003802400070004008544007003C02405B
:104A100080B483B000AF03463960FB7197F907306B
:104A2000002B0BDA0D49FB7903F00F03043B3A68C6
:104A3000D2B21201D2B20B441A7609E0084997F9B2
:104A400007303A68D2B21201D2B20B4483F8002385
:104A50000C37BD465DF8047B704700BF00ED00E0F9
:104A600000E100E080B582B000AF78607B68013B78
:104A7000B3F1807F01D301230FE00A4A7B68013B39
:104A800053604FF0FF300F21FFF7C2FF054B0022AC
:104A90009A60044B07221A60002318460837BD4667
:104AA00080BD00BF10E000E080B500AFBFF34F8FC6
:104AB000BFF36F8F0A4B1A680A4B1B689A4202D3E6
:104AC000074B00221A60064B1B685A1C04490A60F7
:104AD000002B03D172B602F081F962B680BD00BF2F
:104AE0004C11002048110020EFF3008001B501486F
:104AF00000F048F8A94A000880B584B000AF87EDFF
:104B0000010A1C4B1B6807EE903AB8EE677AD7EDA6
:104B1000017A67EE277AFCEEE77A17EE903AFB60AF
:104B2000FB68B3F1807F18D3FB6807EE903AF8EE8C
:104B3000677A9FED117AC7EE877AFCEEE77A17EE77
:104B4000903A01330D4A13600C4B1B68FA68B2FBB4
:104B5000F3F31846FFF786FF05E0084B00221A60C2
:104B6000F868FFF77FFF064B00221A601037BD463A
:104B700080BD00BF90010020FFFF7F4B4811002047
:104B80004C1100201EF0100F08BFB0EE400A03B415
:104B900088B004A006904FF0807007907FF0060068
:104BA0008646704703BC8047BFF36F8F00DFFEE788
:104BB0001EF0100F08BFB0EE400A1EF0040F0CBF2D
:104BC000EFF30880EFF30980816911F8020C00B15E
:104BD00008E01EF0100F0CBF1AB008B003BC80F341
:104BE00000880847FEE700BF80B483B000AF0346EB
:104BF000FB71FB797E2B05D0FB79032B02D0FB796F
:104C00007D2B01D1012300E0002318460C37BD465F
:104C10005DF8047B704700BF80B588B000AFF860D6
:104C2000B9607A607B68BB61FB687B61BB683B6194
:104C30000023FB6128E03B691B781846FFF7D4FF8F
:104C40000346002B13D07B697D221A707B690133E8
:104C50007B613B691B7883F02003DAB27B691A70B1
:104C60007B6901337B61BB690133BB6106E03B6952
:104C70001A787B691A707B6901337B61FB690133A8
:104C8000FB613B6901333B61FA697B689A42D2D38D
:104C9000BB6918462037BD4680BD00BF80B588B0CF
:104CA00000AFF860B96011461A460B46FB71134617
:104CB000BB71BB683B61BB79002B1CD10423FB613A
:104CC0000023BB6112E0FB69013B07F120021344A2
:104CD00013F8101C07F11402BB6913440A461A703A
:104CE000BB690133BB61FB69013BFB61BB69032B02
:104CF000E9D97B693B61FB79002B08D007F11003F0
:104D0000F86819460422FFF787FF034606E0FB68B0
:104D10001A4607F11003186810600423184620375C
:104D2000BD4680BD80B487B000AF78600B46FB7095
:104D30000023FB600023BB607A6807F10C03106856
:104D40001860FB78002B1DD104237B6100233B619D
:104D50000023BB6011E07B69013B07F10C013A695C
:104D60000A44127807F118010B4403F8102C3B6930
:104D700001333B617B69013B7B613B69032BEADDCE
:104D8000BB6800E0FB6818461C37BD465DF8047B35
:104D9000704700BF80B588B000AF786039600023ED
:104DA0007B610023FB763B685B78002B01D10023FD
:104DB00086E07B687E221A707B687E225A707B6850
:104DC00003221A747B6803225A747B6800225A619A
:104DD0007B6800229A617B680022DA617B6800228E
:104DE00083F820207B6838681946022200F08EFA8A
:104DF0000346FB76FB7E002B00D060E07B6802332D
:104E000007F10C02104619460122FFF705FF7861F1
:104E100007F10C03386819467A6900F077FA0346FF
:104E2000FB76FB7E002B00D049E07B685A683B682C
:104E30001B7807F10C01084611460122FFF72EFFEF
:104E4000786107F10C03386819467A6900F05EFA58
:104E50000346FB76FB7E002B00D030E00023FB6195
:104E60001BE07B689A68FB69134407F10C0210464B
:104E700019460122FFF7D0FE786107F10C0338686C
:104E800019467A6900F042FA0346FB76FB7E002B56
:104E900000D014E0FB690133FB617B685A68FB6951
:104EA0009A42DED87B68103338681946022200F037
:104EB0002DFA0346FB76FB7E002B00D000BFFB7E65
:104EC00018462037BD4680BD80B584B000AF7860FD
:104ED000396000237B730023BB600023FB73002336
:104EE000BB733B685B78002B01D101237BE17B68BE
:104EF0007E221A707B687E225A707B6803221A74A5
:104F00007B6803225A747B6800225A617B68002206
:104F10009A617B680022DA617B68002283F8202096
:104F200007F10D0207F1080338681146012200F06D
:104F300059FA0346BB73BB7B002B00D052E1BB6820
:104F4000012B08D07B6800225A617B6800229A619D
:104F50000123BB7346E17B685B69023B022B38D8B7
:104F60007B6893F82030002B09D07B68002283F8FF
:104F700020207B7B83F02003DBB27B7328E07B7BEC
:104F80007D2B04D07E2B07D0032B18D020E07B682C
:104F9000012283F8202024E17A687B689A617B688B
:104FA0009B69591C7A6891617A7B1A707B68DB690E
:104FB0005A1C7B68DA617B6801225A6111E17B68C7
:104FC00000229A617B6800225A610023FB7300BFB4
:104FD00000E000BF7B685B69062B00F2F58001A250
:104FE00052F823F0015000082F5000085F500008CD
:104FF000A55000081B5100086B510008C95100085A
:105000007B7B7E2B12D17A687B689A617B689B6977
:10501000591C7A6891617A7B1A707B68DB695A1C2B
:105020007B68DA617B6801225A61CEE0CDE07B7B50
:105030007E2B11D17B689B69591C7A6891617A7BC0
:105040001A707B680022DA617B6802225A617B68F1
:105050009A1C7B689A61B8E00123FB73B5E07B681A
:10506000DB69002B1AD17B689B69591C7A689161B6
:105070007A7B1A707B68DB695A1C7B68DA617B6813
:10508000DB69012B0DD17B6803225A617B681A1DF5
:105090007B689A617B680022DA6196E00123FB73EA
:1050A00093E092E07B68DB69032B32D87B689B69D5
:1050B000591C7A6891617A7B1A707B68DB695A1C8B
:1050C0007B68DA617B68DB69042B25D17B681A1D5C
:1050D0003B681B7810461946FFF724FE02467B68A2
:1050E0005A607B680022DA617B685B68002B07D01E
:1050F0007B6804225A617B689A687B689A610BE03E
:105100007B6805225A617B6803F110027B689A6113
:105110005BE00123FB7358E057E07B68DA697B684A
:105120005B689A421DD27B689B69591C7A689161C1
:105130007A7B1A707B68DB695A1C7B68DA617B6852
:10514000DA697B685B689A420ED17B6805225A61F6
:105150007B6803F110027B689A617B680022DA6148
:1051600033E00123FB7330E02FE07B68DB69012B28
:1051700026D87B7B032B20D17B689B69591C7A68DE
:1051800091617A7B1A707B68DB695A1C7B68DA61F3
:105190007B68DB69022B16D17B6806225A617B682B
:1051A00000229A617B680022DA617B685B69062BCA
:1051B00002D00123BB7315E014E00123FB7304E06C
:1051C0000123FB7301E000E000BFFB7B002B08D054
:1051D0007B6800229A617B6800225A610123BB73BD
:1051E00000E09DE6BB7B18461037BD4680BD00BF82
:1051F00080B483B000AF0C4B7B6001233B603B78F5
:10520000012B03D07B6800221A7002E07B68012228
:105210001A707B6800225A707B6818460C37BD46AE
:105220005DF8047B704700BFD803002090B587B0BD
:1052300000AFF860B9607A600023FB75FB685B78AB
:10524000002B02D00123FB752DE00120102102F07C
:10525000E9FD03461A46164B1A60154B1B68002BD6
:1052600002D10123FB751EE0114B1B6800221A734B
:105270000F4B1B6800225A73FB6801225A700C4BBB
:105280001C68B868796800F0C1FD03462360084BCC
:105290001B681B68B3F1FF3F05D1FB6800225A7001
:1052A0000123FB7500BFFB7D18461C37BD4690BD32
:1052B000D403002080B584B000AF78600023FB7376
:1052C0007B685B78002B01D1012319E07B68002209
:1052D0005A700D4B1B681B68184600F0CFFDB86074
:1052E000094B1B68002B04D0074B1B68184602F0C3
:1052F000E5FDBB68B3F1FF3F01D10123FB73FB7BED
:1053000018461037BD4680BDD403002080B586B056
:1053100000AFF860B9607A600023FB75FB685B78CA
:10532000002B01D101230FE0094B1B681B681846B5
:10533000B9687A68FEF7CCFC38613B69B3F1FF3F8E
:1053400001D10123FB75FB7D18461837BD4680BD92
:10535000D403002080B586B000AF786039600023A8
:10536000FB750023FB607B685B78002B01D1012378
:1053700032E01B4B1B681B7B002B04D03B680122D7
:105380001A70FB7D28E03B6800221A70144B1B68E2
:105390001968134B1B681A1D07F10C0308461146C8
:1053A000082200F0CBFD38613B69B3F1FF3F03D128
:1053B0000123FB75FB7D0FE0FB68002B0BD03B68E6
:1053C00001221A70064B1B68FA68D2B21A73044B9A
:1053D0001B6800225A73FB7D18461837BD4680BDF6
:1053E000D403002080B588B000AFF860B9607A605F
:1053F0003B600023FB7700237B6100233B617B68DC
:10540000BB613B6800221A60FB685B78002B01D10E
:10541000012349E0264B1B681B7B002B30D0244B1B
:105420001B681B7B1A46BB69934228BF13463B612E
:105430001F4B1B681E4A1268527B13440433B86822
:1054400019463A6902F042FD194B1B68184A126866
:10545000117B3A69D2B28A1AD2B21A73144B1B6802
:10546000134A1268517B3A69D2B20A44D2B25A73D3
:10547000BA683B691344BB60BA693B69D31ABB6124
:105480000B4B1B681B681846B968BA69FEF752FCDB
:1054900078617B69B3F1FF3F02D10123FB7702E022
:1054A0003B687A681A60FB7F18462037BD4680BD8E
:1054B000D403002080B483B000AF786039607B688B
:1054C000002B04D13B68002B01D1012300E0002315
:1054D00018460C37BD465DF8047B704780B584B034
:1054E00000AFF860B9607A60FB681A68BB681B6837
:1054F00010461946FFF7DEFF0346002B0AD0BB68B3
:105500007A681A60BB681A68FB681A607B680022B8
:105510009A6409E0BB681B687A689A64BB687A6819
:105520001A607B6800229A641037BD4680BD00BFB8
:1055300080B584B000AF786039600023FB607B6881
:105540001A683B681B6810461946FFF7B3FF03460D
:10555000002B01D0002311E07B681B68FB60FB6817
:105560009A6C7B681A607B681B68002B02D13B68D1
:1055700000221A60FB6800229A64FB681846103704
:10558000BD4680BD80B500AF054B1A68054B1B6852
:1055900010461946FFF78EFF0346184680BD00BF30
:1055A000280400202C04002080B500AF054B1A68A9
:1055B000054B1B6810461946FFF77CFF034618464B
:1055C00080BD00BF300400203404002080B582B0CC
:1055D00000AF7860034804497A68FFF77FFF083717
:1055E000BD4680BD280400202C04002080B500AFFB
:1055F00003480449FFF79CFF0346184680BD00BFDF
:10560000280400202C04002080B582B000AF786010
:10561000034804497A68FFF761FF0837BD4680BD3B
:10562000300400203404002080B500AF0348044952
:10563000FFF77EFF0346184680BD00BF3004002000
:105640003404002080B400AF034B1B681846BD46ED
:105650005DF8047B704700BF3004002080B584B043
:1056600000AF0023FB720023FB6011E001204C21FE
:1056700002F0D8FB03467B607B68002B02D101233C
:10568000FB7208E07868FFF7A1FFFB680133FB605D
:10569000FB68042BEADDFB7A18461037BD4680BD57
:1056A00080B584B000AF78603960FFF79FFFF86085
:1056B000FA683B68104679681A4602F007FC3A68B7
:1056C000FB681A64FB6800225A64F868FFF79CFFC5
:1056D0001037BD4680BD00BF90B587B002AF78607F
:1056E0000023FB731B4B1B6818467968FFF7ECFB24
:1056F0000346FB73FB7B002B00D025E0154B1B689A
:105700009B78022B03D1144B00221A701CE0114B22
:105710001B689A680F4B1B685B6810461946FFF7B9
:10572000BFFFFFF72FFF0346002B0DD107F1080441
:1057300002230093786800210022234600F00EF82F
:105740000346FB73FB7B002BFB7B18461437BD46DF
:1057500090BD00BFA40100202404002090B58DB0AE
:1057600002AFF860B9607A603B60002387F82330AD
:105770007B68FB61FB69122B28BF1223BB613B686E
:10578000BA691A6000237B6249E00023FB7507F1C8
:105790001703F8681946FFF7DDFD034687F8233045
:1057A00097F82330002B00D061E0FB7D002B0AD05E
:1057B000F868FFF791FF034687F8233097F8233006
:1057C000002B00D053E0FFF7DDFE0346002B24D072
:1057D0007B6A5A1C7A62C72B21DD00237B62FFF7AC
:1057E0003DFF034687F8233097F82330002B00D085
:1057F0003DE007F1100402230093F8680021002225
:105800002346FFF7ABFF034687F8233097F8233092
:10581000002B01D000BF2AE001E000237B62174B80
:105820001B78002B03D097F83830022BADD1144BE6
:105830001B68BA695A60124B1B6897F838209A7037
:105840000F4B1B689A68BB691046B9681A4602F08C
:105850003DFB0B4B1B681846F968FFF79BFA0346A4
:1058600087F8233097F82330002B00D000BF97F83B
:10587000233018462C37BD4690BD00BF24040020BD
:10588000A801002090B58BB002AFF860B9607A60D3
:10589000FB7000237B610023FB610023FB761AE091
:1058A000FB69BA68D1187A68FB69D21A07F1140447
:1058B000FB780093F8682346FFF750FF0346FB761A
:1058C000FB7E002B00D00AE07B69FA691344FB6180
:1058D000054B01221A70FA697B689A42E0DBFB7E75
:1058E00018462437BD4690BD2404002090B58DB0E5
:1058F00002AFF860B9607A603B60002387F823301C
:10590000FFF7A0FE78620DE0F868FFF7E5FE0346BA
:1059100087F8233097F82330002B00D054E0FFF7AE
:1059200091FE78627B6A002BEED07B6A1A6C7B6AF0
:105930005B6CD31AFB617A68FB699A4203DB3B68B4
:10594000FA691A6002E03B687A681A607B6ABB6198
:105950007B6A5B6CBA691344BB613B681B68B868BF
:10596000B9691A4602F0B2FA7B6A5B6C3A6812684F
:105970001A447B6A5A647B6A5A6C7B6A1B6C9A4233
:1059800022D1FFF7FFFD0346FB757B6A00221A64F4
:105990007B6A00225A64FFF747FE03461846FFF76A
:1059A00015FEFB7D002B0FD007F11004022300939E
:1059B000F868002100222346FFF7D0FE034687F84F
:1059C000233097F82330002B97F8233018462C37D4
:1059D000BD4690BD80B584B000AF786039600023CB
:1059E000FB733B6800221A70FFF7DEFD0346002BB5
:1059F00024D00023BB7307F10E0378681946FFF724
:105A0000A9FC0346FB73FB7B002B00D019E0BB7B9A
:105A1000002B12D07868FFF75FFE0346FB73FB7B19
:105A2000002B01D000BF0CE0FFF7BEFD0346002BAA
:105A300003D13B6801221A7003E002E03B680122B7
:105A40001A70FB7B18461037BD4680BD80B400AF8E
:105A5000034B00221A70BD465DF8047B704700BFFF
:105A60002404002080B500AF05E0FFF7BFFD03462A
:105A7000184602F023FAFFF785FD0346002BF4D009
:105A800005E0FFF7D1FD0346184602F017FAFFF7CD
:105A90008BFD0346002BF4D0154B1B689B68184602
:105AA00002F00CFA124B1B6818460021242202F067
:105AB00018FA104B1B689B68184602F0FFF90D4B53
:105AC0001B6818460021242202F00BFA0A4B002220
:105AD0001A60094B1B68094A1360094B00221A60BF
