:020000040800F2
:1000000040200010AD310008093200080932000814
:100010000932000809320008093200080000000017
:10002000000000000000000000000000ED360008A5
:1000300009320008000000000932000825360008D7
:1000400009320008093200080932000809320008A4
:100050000932000809320008093200080932000894
:100060000932000809320008093200080932000884
:100070000932000809320008093200080932000874
:10008000E94C0008554A0008093200080932000806
:100090000932000809320008093200080932000854
:1000A0000932000809320008093200080932000844
:1000B0000932000809320008093200080932000834
:1000C0000932000809320008093200080932000824
:1000D0000932000809320008093200080932000814
:1000E0000932000809320008093200080932000804
:1000F00009320008093200080932000809320008F4
:1001000009320008093200080932000809320008E3
:1001100009320008093200080932000809320008D3
:1001200009320008093200080932000809320008C3
:1001300009320008093200080932000809320008B3
:1001400009320008093200080932000809320008A3
:100150000932000809320008093200080932000893
:100160000932000809320008093200080932000883
:100170000932000809320008093200080932000873
:10018000093200080932000810B5054C237833B94C
:10019000044B13B10448AFF300800123237010BD5A
:1001A000780100200000000038660008084B10B5F8
:1001B0001BB108480849AFF300800848036803B939
:1001C00010BD074B002BFBD0BDE81040184700BF07
:1001D00000000000386600087C010020700100204B
:1001E00000000000154B002B08BF134B9D46A3F5E4
:1001F000803A00218B460F461348144A121A06F023
:10020000B2F80F4B002B00D098470E4B002B00D0BC
:1002100098470020002104000D000D48002802D05E
:100220000C48AFF3008006F05DF82000290005F0CF
:100230005FFB06F043F800BF0000080040200010FC
:1002400000000000000000007801002014100020D1
:1002500000000000000000002DE9F04383B002AF71
:10026000012300934D484E494E4A4F4B02F01AFF6E
:100270000123009349484A494A4A4B4B02F03AFF4E
:10028000012002F043FE494B93ED087B0020B0EEC5
:10029000470AF0EE670A02F025FE444BD3E90E232D
:1002A000104619464FF00002414B05F0CBFF0346C4
:1002B000002B2FD13D4BD3E90E013C4BD3E9082352
:1002C00005F0A4FB02460B4690469946374BD3E90E
:1002D0000823104619464FF00002364B05F04AFD40
:1002E00002460B4614461D4601231E46404649461B
:1002F00022462B4605F0CEFF0346002B01D10023FA
:100300001E46F3B283F00103DBB2002B02D0274B71
:10031000294A1A60254B93F84030002B02D0234B1A
:10032000254A1A60214B9A6A01329A629B6A002B15
:1003300003D11E4BDA6A0132DA621C4C1B4B9B6AFA
:10034000184605F0A1FC194BD3E90C2305F012FD6A
:1003500002460B4690469946144BDB6A184605F058
:1003600093FC124BD3E90C2305F004FD02460B4627
:10037000104619464FF00002104B05F0FBFC0246F8
:100380000B464046494605F043FB02460B46C4E98E
:1003900008230437BD46BDE8F08300BFA80F002046
:1003A000AA0F0020B00F0020C0000020C00F0020C6
:1003B0000000F0BF0000B03CAC6500080000F04158
:1003C00080B584B000AF3A4B18460021482205F0B2
:1003D000CAFF37494FF00002364BC1E90E233449BA
:1003E00031A3D3E90023C1E90C23314B324A9A608F
:1003F0002F4B324ADA602E4B314A1A612C4B314A6C
:100400005A612B4B304A5A602F4B304A1A602F4B9F
:100410002F4A1A60264B5B68254A18329A60244B93
:100420005B68234A08325A60214B5B68204A2032BD
:10043000DA6028480021042205F095FF26480021B3
:10044000102205F090FF25480021242205F08BFFA3
:10045000174B224A9A61214B0E221A601F4B204AE9
:100460005A601E4B1F4A9A601C4B1F4ADA601B4B96
:100470001E4A1A614FF000024FF00003C7E9002343
:100480000023FB6007E0D7E900231349C1E90023FB
:10049000FB680133FB60FB68002BF4DD1037BD46C1
:1004A00080BD00BFAFF30080000000A09999A93F74
:1004B000C00F00200000F0BFBDD89CBD0685BBF971
:1004C0003A79B52A85E0DA6B94010020A801002072
:1004D000C4650008A80F0020B00F0020AC01002068
:1004E0000000002038000020A0000020B8000020FC
:1004F00080B400AFBD465DF8047B704780B582B024
:1005000000AF03460A46FB711346BB7100F02EF99B
:10051000FB7918466B21002200F08AF8FA79BB7942
:1005200010461A211A4600F083F8FB791846752107
:1005300000F042F80346682B0CBF01230023DBB216
:1005400018460837BD4680BD80B584B000AF03466D
:10055000FB710023BB81FB7918463C2100F02CF88D
:1005600003463B73FB7918463B2100F025F8034610
:100570007B73BB891BB218461037BD4680BD00BFD8
:1005800080B584B000AF0346FB710023BB81FB79CB
:100590001846482100F010F803463B73FB791846D3
:1005A000472100F009F803467B73BB891BB218464C
:1005B0001037BD4680BD00BF80B584B000AF034694
:1005C0000A46FB711346BB71FB79002B01D0D22385
:1005D00000E0D023FB73FB7B1846002100F062F89B
:1005E000BB791148194600F049FAFB7B0133DBB2B5
:1005F0001846012100F056F80B48002100F01EFAC1
:100600000948012100F0DCF900BF0748074900F064
:1006100053FA0346002BF8D0034800F03FFA034694
:1006200018461037BD4680BD00540040400003000E
:1006300080B584B000AF0346FB710B46BB71134617
:100640007B71FB79002B01D0D22300E0D023FB7318
:10065000FB7B1846002100F025F8BB790F481946AE
:1006600000F00CFA00BF0D480D4900F025FA0346D2
:10067000002BF8D07B790948194600F0FFF900BF3C
:100680000648074900F018FA0346002BF8D0034843
:10069000012100F095F91037BD4680BD005400409F
:1006A0008400070080B582B000AF03460A46FB71A4
:1006B0001346BB711648012100F062F900BF1448CF
:1006C000144900F0F9F90346002BF8D0FA79BB7908
:1006D0000F4811461A4600F093F9BB79002B08D158
:1006E00000BF0B480C4900F0E7F90346002BF8D097
:1006F0000AE0BB79012B07D100BF0548074900F08C
:10070000DBF90346002BF8D00837BD4680BD00BF9B
:1007100000540040010003008200070002000300B3
:1007200080B582B000AF0220012104F005FDC02396
:100730003B6002233B7102237B710123BB710123C8
:10074000FB713B460848194604F032FD0648062175
:10075000042204F0D5FD04480721042204F0D0FD52
:100760000837BD4680BD00BF0004024080B584B09C
:1007700000AFFFF7D5FF4FF40010012104F0FAFCA1
:100780000C4B3B600023BB804BF6FF73FB800023C8
:100790003B8100237B814FF48043BB813B4606486D
:1007A000194600F00BF80448012100F0C9F8103791
:1007B000BD4680BDA08601000054004080B58AB0CF
:1007C00000AF786039600023FB8400237B8404231E
:1007D000BB84574BFB617B689B88FB84FB8C23F0BD
:1007E0003F03FB8407F10C03184604F0FBFB7B6915
:1007F000FB61FB694F4AA2FB03239B0C7B84FA8CB1
:100800007B8C1343FB847B68FA8C9A807B681B8803
:100810009BB223F001039AB27B681A800023FB8409
:100820003B681B68444A934215D83B681B685B00D1
:10083000FA69B2FBF3F3BB84BB8C032B01D804230E
:10084000BB84FA8CBB8C1343FB847B8C01339AB240
:100850007B681A8440E03B68DB884BF6FF7293426A
:1008600009D13B681A6813465B001344FA69B2FB6E
:10087000F3F3BB840EE03B681A6813469B001344F5
:100880009A001344FA69B2FBF3F3BB84BB8C43F4C4
:100890008043BB84BB8CC3F30B03002B03D1BB8C05
:1008A00043F00103BB84BA8CFB8C13439BB26FEA09
:1008B00043436FEA5343FB847B8C4FF4967202FBF5
:1008C00003F31E4A82FB03129211DB17D31A9BB269
:1008D00001339AB27B681A847B68FA8C9A837B68AE
:1008E0001B889BB243F001039AB27B681A807B6835
:1008F0001B88FB84FB8C23F4816323F00203FB84BD
:100900003B689A883B685B8913439AB2FB8C13431C
:10091000FB847B68FA8C1A803B689A893B681B8948
:1009200013439AB27B681A812837BD4680BD00BF49
:1009300000127A0083DE1B43A0860100D34D6210B3
:1009400080B483B000AF78600B46FB70FB78002B5F
:1009500008D07B681B889BB243F001039AB27B6886
:100960001A8007E07B681B889BB223F001039AB2D0
:100970007B681A800C37BD465DF8047B704700BF6A
:1009800080B483B000AF78600B46FB70FB78002B1F
:1009900008D07B681B889BB243F480739AB27B6853
:1009A0001A8007E07B681B889BB223F480739AB29D
:1009B0007B681A800C37BD465DF8047B704700BF2A
:1009C00080B483B000AF78600B46FB70FB78002BDF
:1009D00008D07B681B889BB243F400739AB27B6893
:1009E0001A8007E07B681B889BB223F400739AB2DD
:1009F0007B681A800C37BD465DF8047B704700BFEA
:100A000080B483B000AF78600B46FB701346BB70B8
:100A1000BB78002B04D0FB7843F00103FB7003E0AC
:100A2000FB7823F00103FB70FB789AB27B681A8293
:100A30000C37BD465DF8047B704700BF80B483B0BF
:100A400000AF78600B46FB70FB78002B08D07B680A
:100A50001B889BB243F480639AB27B681A8007E0DC
:100A60007B681B889BB223F480639AB27B681A80F0
:100A70000C37BD465DF8047B704700BF80B483B07F
:100A800000AF78600B46FB70FB789AB27B681A82E5
:100A90000C37BD465DF8047B704700BF80B483B05F
:100AA00000AF78607B681B8A9BB2DBB218460C37BC
:100AB000BD465DF8047B704780B487B000AF7860B6
:100AC000396000233B610023FB600023BB600023EF
:100AD000FB757B689B8A9BB2FB607B681B8B9BB220
:100AE000BB60BB681B04BB60FA68BB68134323F0A0
:100AF0007F433B613A693B681A403B689A4202D1A6
:100B00000123FB7501E00023FB75FB7D18461C37B4
:100B1000BD465DF8047B704780B582B000AF786059
:100B2000134B1B687A689A421CDD124B1B68002B22
:100B300007D0104B1B68184605F002FC0C4B002236
:100B40001A607B68184605F0F3FB03461A46094B0A
:100B50001A60084B1B68002B01D1012303E0044AF3
:100B60007B681360002318460837BD4680BD00BF70
:100B7000D8010020DC01002080B586B000AF78608D
:100B800039600023BB6000237B610823FB600023E6
:100B9000FB7419E0154B1868FA687B69D11A7B69F8
:100BA0007A68134407F1080203F060FE0346FB7401
:100BB000FB7C002B00D00BE0BB687A6913447B619F
:100BC0007B69002B00D103E07A69FB689A42E1DB84
:100BD000BB68002BCCBF01230023DBB21A463B6865
:100BE0001A70FB7C18461837BD4680BDD401002022
:100BF00080B586B000AF78600023FB7400237B6172
:100C000013E00E4B1A6807F10C03104601211A4637
:100C10000B4B03F02BFE0346FB74FB7C002B00D038
:100C200007E0FB687A6913447B617A697B689A42C2
:100C3000E7DB00BF1837BD4680BD00BFD4010020F0
:100C4000E801002080B586B000AF78600023FB7516
:100C500000233B617868FFF75FFF0346FB75FB7D70
:100C6000002B03D07868FFF7C3FF1BE016E0134B9F
:100C700018687A683B69D11A114B1A683B691344AA
:100C800007F10C0203F0F2FD0346FB75FB7D002B20
:100C900000D007E0FB683A6913443B613A697B681E
:100CA0009A42E4DBFB7D002B02D1054B1B6800E080
:100CB000002318461837BD4680BD00BFD401002070
:100CC000DC01002080B584B000AF78600023FB60B9
:100CD00011E0F86801F0C2F80F4B1B78002B03D02D
:100CE000F868796800F032FBF868796801F034F848
:100CF000FB680133FB60FB68012BEADD074B002238
:100D00001A70074B00221A70064B1B68184603F036
:100D100027FD1037BD4680BDE9010020D00100202D
:100D2000D1010020D401002080B584B000AF7860EC
:100D30000D4B00221A700D4B00221A700023FB602D
:100D400006E0F868796801F0ADFAFB680133FB60F2
:100D5000FB68012BF5DD064B1B68184603F0E4FD2C
:100D60001037BD4680BD00BFD0010020D10100205A
:100D7000D401002080B58EB000AF786000237B6383
:100D8000002387F833307B689B681B68BB62BB6AB3
:100D90005B687B62BB6A1B683B621023FB600823B5
:100DA0003B61504B196807F10C0207F11403084628
:100DB000082103F08DFD034687F8333097F8333070
:100DC000002B40F085807B69082B40F08180BB6A56
:100DD0001B680833FB61FB699B00BB61BB6918465C
:100DE00005F0A6FA03467B637B6B002B03D101233E
:100DF00087F833306CE01023FB60BB693B61394BF3
:100E0000196807F10C0207F114030846082103F0E2
:100E10005FFD034687F8333097F83330002B57D106
:100E20007B69082B54D17B685B681A687B6B1A60FE
:100E30007B6B04337A68526852681A607B6B0833A4
:100E40007A68526892681A607B6B0C337A685268D1
:100E5000D2681A607B6B103300221A607B6B1433EC
:100E600004221A607B6B18331F4A1278D2B21A60C0
:100E70007B6B1C333A6A1A600023FB620DE0FB6A4D
:100E800008339B007A6B1344FA6A9200796A0A4429
:100E900012681A60FB6A0133FB62FA6A3B6A9A4283
:100EA000EDDB104B1A6807F114031046B9697A6B31
:100EB00003F00EFD034687F8333097F83330002BEC
:100EC00006D17A69BB699A4202D1084B01221A7095
:100ED000786B05F035FA97F8333018463837BD4649
:100EE00080BD00BFD4010020C8000020D101002037
:100EF00080B586B000AF03463960FB710023FB75F7
:100F0000FB79BB603B68FB600C4B196807F108027A
:100F100007F110030846082103F0DAFC0346FB75CD
:100F2000FB7D002B02D13B69082B02D00123FB750E
:100F300000BFFB7D18461837BD4680BDD401002098
:100F400080B584B000AF786039600023FB730D4B2F
:100F50001A6807F10803104639687A6803F0B8FC8C
:100F60000346FB73FB7B002B03D1BA683B689A42B4
:100F700002D00123FB7300BFFB7B18461037BD4630
:100F800080BD00BFD401002080B586B000AF03460D
:100F9000B9607A60FB730023FB75FB7B1846B96868
:100FA000FFF7A6FF0346FB75FB7D002B00D00CE08E
:100FB0007B68002B09D07868B968FFF7C1FF03464A
:100FC000FB75FB7D002B00D000BFFB7D184618375A
:100FD000BD4680BD80B586B000AF03463A60FB7168
:100FE0000B46BB710023FB75BB79FB603B683B6123
:100FF000FA7907F10C03104608211A46FFF7C4FFDF
:101000000346FB75FB7D18461837BD4680BD00BF03
:1010100080B586B000AF786039600023FB75386812
:10102000FFF710FE38613B69002B0BD10123FB60F9
:1010300007F10C03122004211A46FFF7A5FF012334
:10104000FB7512E07868396900F008FC0023FB604A
:1010500007F10C03122004211A46FFF795FF0346FF
:10106000FB75FB7D002B00D000BFFB7D18461837B9
:10107000BD4680BD80B592B000AF7860002387F890
:101080003F307B689B681B68BB63BB6B1B697B63E2
:101090007B6B002B71D07B6B1B683B63BB6B5B680E
:1010A000FB6200233B6400237B641FE07B6B5A6878
:1010B0007B6C1B0113445B68BB62BB6A9B00FA6AD2
:1010C00013441B687B627B6B5A687B6C1B01134467
:1010D000DB683B627B6A3A6A02FB03F3FB613A6CB2
:1010E000FB6913443B647B6C01337B647A6C3B6B20
:1010F0009A42DBDB1320396CFFF7FAFE034687F8D0
:101100003F3097F83F30002B00D042E000237B6453
:101110002EE07B6B5A687B6C1B0113441B68BB6120
:101120007B6B5A687B6C1B0113445B687B617B693A
:101130009B00FA6A13441B683B617B6B5A687B6CAB
:101140001B011344DB68FB603B69FA6802FB03F395
:10115000BB60B869B968FFF7F3FE034687F83F3014
:1011600097F83F30002B00D013E07B6C01337B6499
:101170007A6C3B6B9A42CCDB0BE013200021FFF72B
:10118000B7FE034687F83F3097F83F30002B00D07A
:1011900000BF97F83F3018464837BD4680BD00BFB6
:1011A00080B588B000AFB9607A603B600346FB73DE
:1011B0000023FB777868FFF745FDB861BB69002B1A
:1011C00008D1FB7B184601214FF0FF32FFF702FFE9
:1011D000012337E007F114031846B969042205F02A
:1011E000B7F8FB7B1B2B0DD01C2B00D014E0BB6988
:1011F0001A1D7B69B86811461A4600F01FFF0346A6
:10120000FB7709E0BB691A1D7B69B868396800F093
:1012100055FE0346FB7700BFFB7F002B08D07B69A0
:10122000FA7B104601211A46FFF7D4FEFB7F09E046
:101230007B69FA7B104600211A46FFF7CBFE034676
:10124000FB77FB7F18462037BD4680BD80B588B050
:1012500000AF0346B9607A60FB730023FB77B86880
:10126000FFF7F0FCB861BB69002B08D1FB7B184687
:1012700001214FF0FF32FFF7ADFE012321E007F11E
:1012800014031846B969042205F062F8FB7B1D2B94
:1012900007D01E2B00D00AE07B69184601F01CF82D
:1012A00005E07B691846796800F0AEFF00BF7B69F6
:1012B000FA7B104600211A46FFF78CFE0346FB77A7
:1012C000FB7F18462037BD4680BD00BF80B584B087
:1012D00000AF786039600023FB6003F0B3FA024688
:1012E000124B1A60114B1B68002B02D1104BFB6094
:1012F0000BE00E4B1B68184679683A6803F04EFA0B
:10130000F860FB68002B00D000BFFB68002B07D003
:10131000064B1B68184603F09FFA044B00221A6024
:10132000FB6818461037BD4680BD00BFD4010020C1
:10133000C865000880B500AF034B1B68184603F072
:1013400075FA0346184680BDD401002080B588B0E8
:1013500000AF786039600023FB762C4B1B78002BA4
:1013600000D149E007F10803184679683A6801F0AE
:1013700013FD3EE00023FB6130E0FA68FB691B01CE
:1013800013447B617B695A687B691B681046194668
:10139000FFF7D6FD0346FB76FB7E002B00D02BE04B
:1013A0007B699B68002B0DDD7B69DA687B699B6834
:1013B00010461946FFF7C4FD0346FB76FB7E002B63
:1013C00000D019E03A69FB699B0013441B6818467A
:1013D000796800F0B7FFFB690133FB61BA68FB690C
:1013E0009A42CADC07F10803184679683A6801F0A6
:1013F000D3FCBB68002BBDDCFB7E002B02D0386821
:10140000FFF792FC2037BD4680BD00BFD001002011
:1014100080B584B000AF78600023FB6006E0F86818
:101420007968FFF793FFFB680133FB60FB68012BD2
:10143000F5DD1037BD4680BD80B582B000AF00231A
:10144000FB70FB78002B00D016E00E4B1B68184693
:1014500003F062F90346FB70FB78002B00D00BE031
:1014600000237B6005E0786800F040FC7B68013376
:101470007B607B68012BF6DDFB7818460837BD469C
:1014800080BD00BFD401002080B582B000AF78607D
:101490003960054B1B68184679683A6803F038FADA
:1014A0000837BD4680BD00BFD401002080B58CB098
:1014B00002AFF860B9607A60002387F82730002314
:1014C00087F826308D4B1B78002B0DD18C4B1B6879
:1014D00018468A4903F02EF9034687F8273097F813
:1014E0002730002B00D0FBE0844B1B78002B00D171
:1014F000F6E007F11C0207F11B0310461946FFF73F
:101500003BFB034687F8273097F82730002B03D0A2
:10151000012387F82630E3E0FB7E002B00D1DFE0DB
:10152000784B1B78002B01D10023FB61FB690F2B4B
:1015300000F2D58001A252F823F000BF0D1600087A
:101540006D1600088F160008DF1600082516000823
:1015500055160008C3150008E7150008A515000872
:10156000C116000897160008B9160008DF16000813
:10157000DF160008DF1600087D150008FB68DB6831
:10158000D3E90023C7E9042307F11003152008213C
:101590001A46FFF7F9FC034687F8273097F82730FB
:1015A000002B9DE03B6A1D201946BA68FFF74EFEEE
:1015B000034687F8273097F82730002B00D08FE0BC
:1015C0008EE03B6A1A46504B00931B20F968BB68BB
:1015D000FFF7E6FD034687F8273097F82730002B02
:1015E00000D07DE07CE03B6A1A46484B00931C200B
:1015F000F9684FF0FF33FFF7D3FD034687F8273034
:1016000097F82730002B00D06AE069E0F868FFF710
:10161000B1FB034687F8273097F82730002B00D01E
:101620005EE05DE03B6A002B03D1394B01221A706A
:1016300056E03B6AF8681946FFF7EAFC034687F86C
:10164000273097F82730002B00D049E0304B01229B
:101650001A7045E0F868FFF70DFD034687F827305C
:1016600097F82730002B00D03AE039E01120002114
:101670000022FFF789FC034687F8273097F82730C8
:10168000002B00D02CE0B868FFF71CFB28E0B868FE
:10169000FFF74AFB24E01F4B01221A6016200021AD
:1016A0000022FFF771FC034687F8273097F82730B0
:1016B000002B00D014E013E07B6801221A700FE0C9
:1016C0003B6A1E201946BA68FFF7C0FD034687F83B
:1016D000273097F82730002B00D001E000E000BF52
:1016E00097F82730002B06D097F82630002B02D031
:1016F000B868FFF719FB2837BD4680BDD001002030
:10170000D4010020D1010020E0010020E4010020EC
:10171000D2010020D002002080B582B000AF7860F6
:101720003960786800F09AFB78683968FFF70EFE38
:101730007868396800F010FB074B1B68002B07D056
:10174000054B1B68184604F0FBFD034B00221A6092
:101750000837BD4680BD00BFDC01002080B584B0E5
:1017600000AF78600023FB720023FB6006E0F8689E
:101770007968FFF7D1FFFB680133FB60FB68012B41
:10178000F5DD134B1B78002B09D01420002100221B
:10179000FFF7FAFB0346FB720D4B00221A700D4B4C
:1017A0001B78002B05D00B4B00221A700A4B01222C
:1017B0001A700A4B1B68184602F0DCFF074B1B68C7
:1017C000184603F049F8FB7A18461037BD4680BD2D
:1017D000D1010020D0010020C8000020D401002049
:1017E00080B584B000AF78600023FB6006E0F86845
:1017F000796801F0B5F9FB680133FB60FB68012BE8
:10180000F5DD1037BD4680BD80B582B000AF002346
:101810007B6005E0786801F0EBF97B6801337B6061
:101820007B68012BF6DD0837BD4680BD80B586B0EC
:1018300000AFF86087ED000B00237B6108E0F868DB
:1018400097ED000B796900F01FFF7B6901337B6125
:101850007B69012BF3DD1837BD4680BD80B596B09E
:1018600000AF786039603B683B650023FB6401236F
:10187000BB6402237B6403233B641023FB637B680C
:101880009B681B68BB63BB6B1B697B63BB6B5B6843
:101890003B6307F118031846396D042204F058FD24
:1018A0003B6D04333B6500237B655FE0FB6B07F119
:1018B00008021046396D1A4604F04AFDFB6B3A6D7A
:1018C00013443B657B6B5A68FB6C9B0007F1580126
:1018D0000B4453F8503C1B0113441B68FB627B6BA9
:1018E0005A68FB6C9B0007F158010B4453F8503CBD
:1018F0001B0113449B68BB623B6C9B0007F15802C1
:10190000134453F8503C9B003A6B13441B68BA6A6B
:10191000002A01D0022200E0012202FB03F37B62D5
:101920007B6C9B0007F15802134453F8503C7A6AD1
:1019300002FB03F33B62BB6C9B0007F158021344AC
:1019400053F8503C7A6A02FB03F31A46FB6A1344CD
:10195000FB613B6AF869396D1A4604F0F9FC3B6A91
:101960003A6D13443B657B6D01337B65BB697A6DD2
:101970009A429BDB5837BD4680BD00BF80B491B012
:1019800000AFF860B9607A60FB689B681B68FB6316
:10199000FB6BDB68BB63FB6B5B687B6300233B63B8
:1019A0000123FB620223BB6203237B62BB6B5A6889
:1019B0003B6B9B00B9680B441B681B0113441B68FD
:1019C0003B62BB6B5A683B6B9B00B9680B441B685E
:1019D0001B0113449B68FB617B6A9B00BA6813443C
:1019E0001B689B007A6B13441B68FA69002A01D0BC
:1019F000022200E0012202FB03F3BB61BB6A9B00F1
:101A0000BA6813441B68BA6902FB03F37B61FB6A83
:101A10009B00BA6813441B68BA6902FB03F33B617D
:101A20003B693A6A1A447B681A607B687A695A6033
:101A30004437BD465DF8047B704700BF90B593B056
:101A400000AFF860B9607A603B603B681B683B643C
:101A5000002387F83F3007F128031846396C042229
:101A600004F076FC3B6C04333B64FB681A68BB6A89
:101A70009B0013441A687B681A6007F12C03184610
:101A8000396C042204F064FC3B6C04333B64BB6897
:101A90001846042104F008FC03461A467B685A6085
:101AA0007B685B68002B03D1012387F83F3076E029
:101AB00000237B646FE007F124031846396C04228D
:101AC00004F046FC3B6C04333B647B685A687B6AD9
:101AD0009B00D41801200C2104F0E6FB0346236090
:101AE0007B685A687B6A9B0013441B68002B03D1F8
:101AF000012387F83F3052E07B685A687B6A9B007D
:101B000013441B687B637B6B1846396C042204F01A
:101B10001FFC3B6C04333B647B6B1B68184608213D
:101B200004F0C2FB03461A467B6B5A607B6B5B6812
:101B3000002B04D1012387F83F3000BF2FE00023A2
:101B4000BB6320E07B6B5A68BB6BDB0013443B63D9
:101B500007F114031846396C102204F0F9FB3B6CB2
:101B600010333B6407F11403F86819463A6BFFF72A
:101B700005FF7B6B9A683B6B5B681A447B6B9A60D2
:101B8000BB6B0133BB637B6B1A68BB6B9A42D9DCBE
:101B90007B6C01337B64FB6A7A6C9A428BDB3B681B
:101BA0003A6C1A6097F83F3018464C37BD4690BDE6
:101BB00080B584B000AF786039600023FB733B6868
:101BC000002B02DA0123FB7325E07B6801221A60F7
:101BD0003B68002B0EDD3B68184604F0A9FB03466A
:101BE0001A467B689A607B689B68002B05D10123AD
:101BF000FB7310E07B6800229A607B683A685A6049
:101C00007B689A687B68DA607B689A687B681A618F
:101C10007B6800225A61FB7B18461037BD4680BDA9
:101C200080B586B000AF78607A681346DB009B1AF7
:101C30001B012D4A13447B617B6920333B613B6967
:101C40003033FB60FB685B68002B07D0FB685B6888
:101C5000184604F075FBFB6800225A603B69DB6B99
:101C6000002B07D03B69DB6B184604F069FB3B692E
:101C70000022DA633B6900221A703B6900229A60F5
:101C80003B690022DA603B6900221A613B6901224C
:101C90005A613B6900229A6139694FF000024FF0A6
:101CA0000003C1E908233B6900229A623B690022D4
:101CB000DA623B6900221A633B6900225A633B697E
:101CC00000229A633B690022DA633B6900221A64AE
:101CD0003B6900225A643B6900229A643B690022F6
:101CE000DA641837BD4680BDF001002080B584B0AD
:101CF00000AF78607A681346DB009B1A1B01144A18
:101D00001344FB60134A7B6813441B78002B09D0F3
:101D1000F8680021702204F026FB0E4A7B68134409
:101D200000221A70FB6800225A60FB6800229A6049
:101D3000FB680022DA60FB6800229A61FB680022DF
:101D40005A617868FFF76CFF1037BD4680BD00BF51
:101D5000F0010020C400002080B586B000AF78609C
:101D600039607A681346DB009B1A1B013A4A134418
:101D7000FB60FB685B68002B00D16AE000237B619D
:101D80002EE0FB689A687B69DB0013445B68BB60EC
:101D900000233B611AE03B699B00BA6813441B684F
:101DA000002B10D03B699B00BA6813441B685B682A
:101DB000184604F0C5FA3B699B00BA6813441B68D7
:101DC000184604F0BDFA3B6901333B613A693B6850
:101DD0009A42E0DBB86804F0B3FA7B6901337B61B7
:101DE000FB685A687B699A42CBDCFB689B681846A3
:101DF00004F0A6FAFB68DB68002B1AD000237B6195
:101E00000EE0FB68D9687A691346DB009B1A9B00D9
:101E10000B449B68184604F093FA7B6901337B619D
:101E20007A693B689A42ECDBFB68DB68184604F091
:101E300087FAFB689B69184604F082FAFB685B69C5
:101E4000184604F07DFA7868FFF7EAFE7868FFF735
:101E50004DFF1837BD4680BDF001002080B485B02D
:101E600000AF78607A681346DB009B1A1B01124AA8
:101E70001344FB60FB6893F82030052B17D801A2B0
:101E800052F823F0AF1E0008AF1E0008AF1E000876
:101E9000AF1E00089D1E00089D1E0008FB6805225D
:101EA00083F82020FB684FF0FF32DA6200BF14375E
:101EB000BD465DF8047B7047F001002080B58AB014
:101EC00000AFF860B9607A603B600023FB777B6805
:101ED0007B613A681346DB009B1A1B01564A134488
:101EE000BB61BB693A681A603868B968FFF734FFAC
:101EF000BB691A1D7B6910461946042204F028FAB2
:101F00007B6904337B61BB695B681846082104F078
:101F1000CBF903461A46BB699A60BB699B68002BE4
:101F200002D10123FB777AE000233B6213E0BB6917
:101F30009A683B6ADB001A4407F11403F868B96831
:101F4000FFF77CFD0346FB77FB7F002B00D066E0AC
:101F50003B6A01333B62BB695A683B6A9A42E6DCE2
:101F6000BB6818461C2104F09FF903461A46BB695A
:101F7000DA6000237B6200233B6229E07B6907F182
:101F8000100210461946042204F0E2F97B6904337A
:101F90007B61BB69D9683A6A1346DB009B1A9B00D8
:101FA000CA183B6910461946FFF702FE0346FB7745
:101FB000FB7F002B33D13B69002B14BF012300238F
:101FC000DBB21A467B6A13447B623B6A01333B6295
:101FD0003A6ABB689A42D1DBBB6900221A617B6A0C
:101FE0001B01184604F0A4F903461A46BB699A611E
:101FF000BB699B69002B02D10123FB770FE07B6A51
:102000009B00184604F094F903461A46BB695A61CE
:10201000BB695B69002B02D10123FB7700BFFB7F0B
:10202000002B03D03868B968FFF796FEFB7F18468F
:102030002837BD4680BD00BFF001002080B592B0BA
:1020400000AFF860B9607A60002387F84730BB685A
:102050003B647A681346DB009B1A1B012033694AF4
:102060001344BB6307F128031846396C042204F0BB
:102070006FF93B6C04333B64BA6ABB6B5A60BB6B51
:1020800008331846396C042204F062F93B6C0433BF
:102090003B64BB6B0C331846396C042204F058F9CE
:1020A0003B6C04333B64BB6B10331846396C042221
:1020B00004F04EF93B6C04333B64BB6B3033184681
:1020C000396C042204F044F93B6C04333B64BB6B71
:1020D0001B6B7B637B6B002B4DDDBB6B30333B633A
:1020E0007B6BDB00184604F023F903461A463B6B72
:1020F0005A603B6B5B68002B03D1012387F84730A4
:1021000073E00023FB6320E03B6B5A68FB6BDB0052
:102110001344FB6207F114031846396C102204F0D3
:1021200017F93B6C10333B6407F11403F868194648
:10213000FA6AFFF723FC3B6B9A68FB6A5B681A44F8
:102140003B6B9A60FB6B0133FB633B6B1A68FB6B69
:102150009A42D9DC3B6B9B68184604F0E9F80346C9
:102160001A46BB6BDA63BB6BDB6B002B03D101231D
:1021700087F8473039E007F124031846396C042208
:1021800004F0E6F83B6C04333B647B6A002B02D01E
:102190007B6A022B01D1012200E00022BB6B5A6155
:1021A0007B6A012B02D07B6A022B01D1012200E065
:1021B0000022BB6B9A61BB6B20331846396C082236
:1021C00004F0C6F83B6C08333B64BB6B1B69002B07
:1021D00008DABB6B1B695A42BB6B5A64BB6B0022AB
:1021E0001A6102E0BB6B00225A6497F84730002B5B
:1021F00002D07868FFF714FD97F847301846483743
:10220000BD4680BDF001002080B487B000AF78608B
:1022100039607A681346DB009B1A1B011F4A13447E
:102220003B611F4B00221A703B690022DA640023D5
:102230007B611DE03B69D9687A691346DB009B1A14
:102240009B000B44FB60FB685B68002B0DDDFB68AB
:102250009A68FB68DA60FB689A68FB681A61FB6839
:1022600000225A61FB6801221A607B6901337B619D
:102270007A693B689A42DDDB3B6900229A643B69DC
:1022800000221A663B6900229A663B69022283F8A3
:1022900020201C37BD465DF8047B7047F00100200C
:1022A000E901002080B584B000AF786039607A68B9
:1022B0001346DB009B1A1B01064A1344FB60FB68B4
:1022C000002283F8202078683968FFF745FD103731
:1022D000BD4680BDF001002080B485B000AF7860BD
:1022E0007A681346DB009B1A1B01154A1344FB60F6
:1022F000FB6893F82030052B1CD801A252F823F07C
:1023000035230008192300081923000819230008A1
:10231000192300082B230008FB684FF0FF32DA6214
:10232000FB68052283F8202004E0FB684FF0FF32B1
:10233000DA6200BF1437BD465DF8047B704700BF0A
:10234000F001002080B485B000AF786039603A6851
:102350001346DB009B1A1B01114A1344FB60FB6808
:10236000D9687A681346DB009B1A9B000B44BB605C
:102370000C4B01221A70BB685A69BB681A61BB68B2
:102380001A69BB68DB689A420CBF01230023DBB2E9
:102390001A46BB681A601437BD465DF8047B704767
:1023A000F0010020E901002080B489B000AFF8609E
:1023B000B9607A603B600023FB77FB689B68FA6832
:1023C00052681344BB617B681A68FB681B699A42B8
:1023D00003D8FB681B68002B4FD0BB697A68126872
:1023E0009A1AFB681B691946FB689B68CB1A134451
:1023F0007B617A69BB689A4202DA0123FB775DE070
:102400007B681A68BB681A44BB699A4213D23B685E
:10241000BA681A607B681A683B685A603B68002299
:102420009A603B680022DA607B681A68BB681A44CD
:102430007B681A6042E0BB697A6812689A1A3B6846
:102440001A607B681A683B685A603B681B68BA6808
:10245000D21A3B689A603B689B68002B02DDFB68E0
:102460009B6800E000233A68D360FB689B683A6889
:1024700092681A447B681A6020E0FB681B691A4660
:102480007B681B68D31A7B617A69BB689A4202DA5F
:102490000123FB7712E03B68BA681A607B681A6810
:1024A0003B685A603B6800229A603B680022DA6011
:1024B0007B681A68BB681A447B681A60FB7F184601
:1024C0002437BD465DF8047B704700BF80B58EB0F1
:1024D00000AF78607A681346DB009B1A1B01694ADB
:1024E0001344BB62BB6A20337B627B6ADB6B3B625B
:1024F0003B6A3B6300237B63B6E07B6A5A6B7B6B72
:10250000DB001344FB61FB695B68DB08BB617B6A32
:102510001B6C002B00F097807B6AD3E90823C7E986
:102520000423FB691B68FB600023FB6286E07B6A77
:102530005B69002B3DD0FB6ADB00FA681344D3E9EA
:10254000002310461946D7E9042303F099FE0346F9
:10255000002B0ED0FB6ADB003A6B1344D3E9002357
:1025600010461946D7E9042303F076FE0346002BF4
:102570001DD1FB6ADB00FA681344D3E9002310463F
:102580001946D7E9042303F085FE0346002B10D03B
:10259000FB6ADB003A6B1344D3E90023104619466B
:1025A000D7E9042303F04EFE0346002B01D001239C
:1025B00064E07B6A9B69002B3DD0FB6ADB00FA6814
:1025C0001344D3E9002310461946D7E9042303F046
:1025D00043FE0346002B0ED0FB6ADB003A6B13442C
:1025E000D3E9002310461946D7E9042303F048FE37
:1025F0000346002B1DD1FB6ADB00FA681344D3E9C4
:10260000002310461946D7E9042303F01BFE0346B6
:10261000002B10D0FB6ADB003A6B1344D3E9002394
:1026200010461946D7E9042303F034FE0346002B75
:1026300001D0012322E0FB6A0133FB62FA6ABB6925
:102640009A42FFF674AFFB691A68FB695B68386BE6
:1026500011461A4603F07CFEBB69DB003A6B13445B
:102660003B637B6B01337B637B6A1A6B7B6B9A42A8
:102670003FF743AF7B6A01221A64002318463837BC
:10268000BD4680BDF001002090B5ABB000AFF86052
:1026900087ED000BB960BA681346DB009B1A1B017B
:1026A000BC4A1344C7F89C300023C7F8A430D7F8BD
:1026B0009C302033C7F89830D7F89C30D968FA6836
:1026C0001346DB009B1A9B000B44C7F89430D7F8E5
:1026D00098301B78022B2DD1D7F898301B6B002B2C
:1026E00004D1D7F8983004221A7023E0D7F8983034
:1026F0005A68FB689A421DD1B868FFF7E7FE0346A7
:10270000002B17D0D7F898301B69002B0AD1D7F8C7
:10271000983004221A70D7F898309A6CD7F898300D
:102720009A6207E0D7F8983003221A70D7F89830E9
:1027300001229A62D7F898301B78022B06D1D7F87D
:1027400098305B6C002B01DD012300E00023C7F80B
:102750009030D7F898301B78042B04D0D7F89030FD
:10276000002B00F0EA81D7F894305B68002B00F072
:10277000E481D7F89430DB68BB620023C7F88C3063
:102780000123C7F888300223C7F884300323C7F831
:1027900080300423FB6700237B610023BB6100239F
:1027A000FB6100233B6200237B62FB6F9B0007F110
:1027B000A8021344BA6843F8942CD7F89030002B41
:1027C0003FD0D7F898309A6CD7F898305B6C9A4223
:1027D00037D1D7F894309B68D7F8942052681344C7
:1027E000BB67D7F894301B6904337B6707F110038C
:1027F0001846796F042203F0ABFD3B6908333B6157
:10280000D7F894301B693A691A44D7F894301A61A2
:10281000D7F894301B691A46BB6FD31A3B673B6FDE
:10282000002B07DBD7F894309A683B6F1A44D7F82F
:1028300094301A61D7F898309B6C5A1ED7F89830AC
:102840009A641423FB6607F1280207F12C03D7F8DA
:102850009400F96EFFF7A8FD0346C7F8A430D7F837
:10286000A430002B00D068E1FB6E083BFB66D7F874
:1028700088309B0007F1A802134453F8942CFB6E98
:102880001A44D7F888309B0007F1A8010B4443F89D
:10289000942C07F1280207F13C03D7F89400082193
:1028A000FFF782FD0346C7F8A430D7F8A430002B09
:1028B00000D042E1D7F888309B0007F1A80213440A
:1028C00053F8943C08331A46D7F888309B0007F138
:1028D000A8010B4443F8942C3A6CFB6B1C463B4616
:1028E00010461946224603F033FDBB6C002B0AD07C
:1028F000FB6B1A463B461344BB66BB6C7A6C1846AE
:10290000B96E03F025FD0023FB64C6E0D7F89C30C8
:102910009A68FB6CDB0013447B667B6E1B681B783C
:10292000002B00F0B7807B6E1B681B785BB2032B1B
:1029300000F0B0807B6E5A68FB689B0013441B68F4
:102940003B663B6E002B00F0A580D7F884309B00DF
:1029500007F1A802134453F8943C5A1CD7F884306A
:102960009B0007F1A8010B4443F8942C0423FB6659
:1029700007F1280207F13C03D7F89400F96EFFF73E
:1029800013FD0346C7F8A430D7F8A430002B03D0BA
:10299000D3E000BFF0010020D7F888309B0007F19A
:1029A000A802134453F8942CFB6E1A44D7F88830CD
:1029B0009B0007F1A8010B4443F8942C3A6CFB6B85
:1029C0001C4607F14C0310461946224603F0C0FC92
:1029D000BB6C002B0BD0FB6B1A4607F14C03134466
:1029E000FB65BB6C7A6C1846F96D03F0B1FC0023F3
:1029F000C7F8A03048E03B6E5A68D7F8A030DB003B
:102A00001344BB65BB6D596807F1280207F13C030D
:102A1000D7F89400FFF7C8FC0346C7F8A430D7F8EE
:102A2000A430002B00D088E0D7F888309B0007F155
:102A3000A802134453F8942CBB6D5B681A44D7F872
:102A400088309B0007F1A8010B4443F8942C3A6CA2
:102A5000BB6D1B68F96B0C4610461946224603F005
:102A600077FCBB6C002B0AD0BB6D1B68FA6B134460
:102A70007B65BB6C7A6C1846796D03F069FCD7F8FE
:102A8000A0300133C7F8A0303B6E1A68D7F8A030E9
:102A90009A42B0DCFB6C0133FB64D7F89C305A6877
:102AA000FB6C9A423FF732AFD7F884309B0007F1B6
:102AB000A802134453F8943C002B00D13DE0D7F812
:102AC0008C309B0007F1A80213441A2243F8942C7F
:102AD000D7F880309B0007F1A8021344FA6843F846
:102AE000942C3A6BFB6A1C4607F1140310461946F6
:102AF000224603F02DFCBB6B002B0BD0FB6A1A4661
:102B000007F1140313443B65BB6B7A6B1846396DB0
:102B100003F01EFCBA6AD7F89430DA60D7F8943024
:102B200000221A60D7F89030002B06D0D7F89830E2
:102B30009B6C5A1CD7F898309A64D7F89030002BC9
:102B40000BD1D7F8A430002B07D0D7F8983001224A
:102B5000DA62D7F8983005221A70AC37BD4690BDBE
:102B600080B584B000AF786039607A681346DB00C6
:102B70009B1A1B011D4A1344FB60FB682033BB609A
:102B8000BB681B78002B00D12DE0BB681B78012BA4
:102B90000ED1BB689B6A591CBA689162BA68D26848
:102BA000934204D178683968FFF72EFB00E01AE001
:102BB000BB681B78032B16D1BB689B6A591CBA688B
:102BC0009162BA68126993420DDBBB689A6CBB686C
:102BD0009A62BB6804221A70BB685B6C002B02DD32
:102BE000BB680122DA641037BD4680BDF0010020C9
:102BF00080B485B000AF78607A681346DB009B1A1A
:102C00001B01114A1344FB60FB682033BB60BB68A7
:102C10001B78002B00D111E0BB681B78042B0DD171
:102C2000BB689B6A5A1CBB689A62BB689A6ABB689D
:102C30009B689A4202D1BB6805221A701437BD46C0
:102C40005DF8047B704700BFF001002080B48DB0B8
:102C500000AFF860B9607A60BA681346DB009B1A6F
:102C60001B013B4A1344BB62BB6A10337B627B6A25
:102C700000221A600023FB6255E0BB6AD968FA6A39
:102C80001346DB009B1A9B000B443B623B6A1B68AC
:102C9000002B45D13B6A1B69FB613B6A5B68BB61EA
:102CA0003B6ADB687B617B6A9A687B6A1B681B01F5
:102CB00013443B617B6A5A687B6A1B689B00134420
:102CC000FA6A1A607B6A1B685A1C7B6A1A603B6945
:102CD000FA695A603B6A7A695A617A69FB699A4271
:102CE0000BD97A69FB69D21A3B691A603B690022E9
:102CF0009A603B690022DA6012E03B6A9A68BB691D
:102D000013441A46FB69D21A3B691A607B693A6A16
:102D100092689A1A3B699A603B6A9A683B69DA60E2
:102D2000FB6A0133FB62FA6A7B689A42A5DB7B6A25
:102D30001A68FB681A607B6A9A68FB685A607B6A4B
:102D40005A68FB689A603437BD465DF8047B70476B
:102D5000F001002080B485B000AF786039603A6837
:102D60001346DB009B1A1B010A4A1344FB60FB68F5
:102D70001033BB60BB6800221A60BB681A687B68AE
:102D80001A607B6800225A601437BD465DF8047BE8
:102D9000704700BFF001002080B586B000AFF8603A
:102DA000B9607A60BA681346DB009B1A1B01264A99
:102DB00013447B617B6920333B613B691B78042BA7
:102DC00003D03B691B78052B36D1BB68F8681946E0
:102DD000FFF7C0FFBB68F86819467A68FFF736FF4F
:102DE000FB681B68002B26D13B691B78052B22D181
:102DF000164B00221A703B69DB68B3F1FF3F0CD120
:102E000007F10803202004211A46FEF7BDF8BB682D
:102E100018467968FFF746FA0DE007F108031F200E
:102E200004211A46FEF7B0F83B6900229A623B691A
:102E300001221A7005E004E0BB68F8681946FFF744
:102E400089FF1837BD4680BDF0010020E901002050
:102E500080B584B000AFF860B9607A60FEF76AFAB6
:102E60000346002B14D00BE000200F49FEF70CFBAB
:102E7000F868B9687A68FEF719FBB868FEF7C8FA0F
:102E80000A4B1B68002B03D17B681B78002BEBD00F
:102E9000074B1B78DBB2042B02D0054B03221A70C0
:102EA0001037BD4680BD00BFD8B80500D002002055
:102EB000C800002080B584B000AFF860B9607A60C7
:102EC000074B1B78DBB2042B07D0F868B9687A6827
:102ED000FEF7ECFAB868FEF79BFA1037BD4680BDE6
:102EE000C800002080B584B000AFF86087ED000B0B
:102EF000F86897ED000BFEF799FC1037BD4680BDD2
:102F000080B500AFFEF780FC80BD00BF80B582B009
:102F100000AF78607868FEF763FC0837BD4680BD77
:102F200080B582B000AF7860FEF786FA0837BD46FC
:102F300080BD00BF80B582B000AF78607868FEF7D2
:102F40000DFC0837BD4680BDB0B582B000AF7860DB
:102F5000124BD3E90023104619464FF000024FF000
:102F6000000303F08DF90346002B0ED10B4BD3E980
:102F700000234FF000040A4D1046194622462B4606
:102F800003F060F90346002B05D0044BD3E900237E
:102F90007968C1E900230837BD46B0BDD0000020E4
:102FA0000000F0BF80B582B000AF78607868FFF7AE
:102FB000CBFF0837BD4680BD80B582B000AF7860DA
:102FC000396000200021FEF781F90837BD4680BD39
:102FD00080B400AFBD465DF8047B704780B58AB011
:102FE00000AFF860B9607A6000237B62BB683B6227
:102FF0004FF0FF33FB611BE07A68FB69934228BF07
:103000001346BB6107F11403F868396ABA6901F025
:10301000DFFC78627B6AB3F1FF3F01D17B6A0BE092
:103020007B697A68D31A7B607B693A6A13443B6296
:103030007B68002BE0D17B6A18462837BD4680BDEF
:1030400080B58AB000AFF860B9607A6000237B6217
:10305000BB683B624FF0FF33FB611BE07A68FB69A2
:10306000934228BF1346BB6107F11403F868396A1D
:10307000BA6901F001FD78627B6AB3F1FF3F01D1CB
:103080007B6A0BE07B697A68D31A7B607B693A6A5A
:1030900013443B627B68002BE0D17B6A18462837DB
:1030A000BD4680BD80B584B000AFF860B9607A607D
:1030B0003B607B68D3E90023104619464FF00002BD
:1030C0000B4B03F0BFF80346002B0DD00020FDF79B
:1030D0003BFA03461A46FB681A800120FDF750FAB6
:1030E00003461A46BB681A801037BD4680BD00BF34
:1030F0000000F03F80B586B000AFF860B9607A603C
:103100003B607B68D3E90023104619464FF000026C
:10311000224B03F097F80346002B3BD10023FB75AD
:103120003B681B682C2B19D02C2B06D80A2B1BD0E4
:10313000152B16D0052B1AD01CE0B82B08D0B3F5F0
:10314000827F02D05E2B06D014E00023FB7511E0D5
:103150000123FB750EE00223FB750BE00323FB75D7
:1031600008E00423FB7505E00523FB7502E0062358
:10317000FB7500BFFB7D00201946FDF7BFF9FB7D05
:1031800001201946FDF7BAF979684FF00002034BA8
:10319000C1E900231837BD4680BD00BF0000F03FE5
:1031A00080B400AFBD465DF8047B704780B582B047
:1031B00000AF104B7B60104B3B6007E03B681A1D73
:1031C0003A607A68111D796012681A603B680B4A90
:1031D0009342F3D30A480B494FF000028842B8BF2C
:1031E00040F8042BFADB00F087F8FCF7FBFF083708
:1031F000BD4680BD4066000800000020740100202C
:10320000780100201410002080B400AFFEE700BF5A
:1032100080B483B000AF7860FEE700BF80B485B0B3
:1032200000AF7860134B1B68002B02D1114B124A80
:103230001A60104B1B68FB600E4B1B681A467B68BC
:103240001344073323F00703BB60BB680B4A934268
:1032500005D30B4B0C221A604FF0FF3303E0054AF5
:10326000BB681360FB6818461437BD465DF8047BE5
:10327000704700BFD4020020402000100000011061
:103280001010002080B483B000AF03463960FB719A
:1032900097F90730002B0BDA0D49FB7903F00F0388
:1032A000043B3A68D2B21201D2B20B441A7609E05A
:1032B000084997F907303A68D2B21201D2B20B44EA
:1032C00083F800230C37BD465DF8047B704700BFD0
:1032D00000ED00E000E100E080B500AF054A054BDD
:1032E0005B6943F4007353616FF004000021FFF742
:1032F000C9FF80BD00ED00E080B500AF154A154B59
:10330000D3F8883043F47003C2F88830124A124B65
:103310001B6843F0010313600F4B00229A600E4AB2
:103320000D4B1B6823F0847323F4803313600A4B26
:103330000A4A5A60084A084B1B6823F4802313602A
:10334000054B0022DA6000F087F8024B4FF0006274
:103350009A6080BD00ED00E000380240103000248B
:1033600080B487B000AF00233B6100237B61022360
:10337000FB600023BB6002237B60324B9B6803F041
:103380000C033B613B69042B07D0082B09D0002BB1
:103390003FD12D4B2D4A1A603FE02B4B2C4A1A602F
:1033A0003BE0284B5B6803F480039B0DBB60254B1F
:1033B0005B6803F03F037B60BB68002B0DD0244AA1
:1033C0007B68B2FBF3F21F4B596847F6C0730B40A2
:1033D0009B0903FB02F37B610CE01C4A7B68B2FB98
:1033E000F3F2184B596847F6C0730B409B0903FB77
:1033F00002F37B61134B5B6803F440331B0C013316
:103400005B00FB607A69FB68B2FBF3F30E4A136062
:1034100003E00D4B0D4A1A6000BF0A4B9B6803F096
:10342000F0031B090B4AD35CDBB23B61064B1A6805
:103430003B6922FA03F3044A13601C37BD465DF86A
:10344000047B704700380240D80000200024F400BC
:1034500000127A00DC00002080B483B000AF0023AB
:103460007B6000233B60354A344B1B6843F4803358
:103470001360324B1B6803F400333B607B680133FD
:103480007B603B68002B03D17B68B3F5A06FF0D164
:103490002A4B1B6803F40033002B02D001233B604E
:1034A00001E000233B603B68012B42D1234A234BC0
:1034B0001B6C43F080531364214A214B1B6843F477
:1034C000804313601D4A1D4B9B6893601B4A1B4B36
:1034D0009B6843F400439360184A184B9B6843F47D
:1034E000A0539360154B174A5A60144A134B1B683C
:1034F00043F08073136000BF104B1B6803F0007330
:10350000002BF9D0104B40F205621A600B4A0B4BAE
:103510009B6823F003039360084A084B9B6843F0C1
:103520000203936000BF054B9B6803F00C03082B5C
:10353000F9D10C37BD465DF8047B70470038024076
:103540000070004008544007003C024080B483B043
:1035500000AF03463960FB7197F90730002B0BDA97
:103560000D49FB7903F00F03043B3A68D2B2120114
:10357000D2B20B441A7609E0084997F907303A6845
:10358000D2B21201D2B20B4483F800230C37BD46ED
:103590005DF8047B704700BF00ED00E000E100E053
:1035A00080B582B000AF78607B68013BB3F1807F6B
:1035B00001D301230FE00A4A7B68013B53604FF0BF
:1035C000FF300F21FFF7C2FF054B00229A60044B2A
:1035D00007221A60002318460837BD4680BD00BF89
:1035E00010E000E080B500AFBFF34F8FBFF36F8FE7
:1035F0000A4B1A680A4B1B689A4202D3074B0022F7
:103600001A60064B1B685A1C04490A60002B03D140
:1036100072B602F047F962B680BD00BF0C10002000
:1036200008100020EFF3008001B5014800F048F8D1
:10363000E535000880B584B000AF87ED010A1C4B6A
:103640001B6807EE903AB8EE677AD7ED017A67EE1D
:10365000277AFCEEE77A17EE903AFB60FB68B3F14D
:10366000807F18D3FB6807EE903AF8EE677A9FEDFB
:10367000117AC7EE877AFCEEE77A17EE903A0133BB
:103680000D4A13600C4B1B68FA68B2FBF3F3184643
:10369000FFF786FF05E0084B00221A60F868FFF785
:1036A0007FFF064B00221A601037BD4680BD00BF69
:1036B000D8000020FFFF7F4B081000200C100020D6
:1036C0001EF0100F08BFB0EE400A03B488B004A08B
:1036D00006904FF0807007907FF006008646704796
:1036E00003BC8047BFF36F8F00DFFEE71EF0100FB3
:1036F00008BFB0EE400A1EF0040F0CBFEFF30880C5
:10370000EFF30980816911F8020C00B108E01EF0A6
:10371000100F0CBF1AB008B003BC80F30088084734
:10372000FEE700BF80B483B000AF0346FB71FB79B6
:103730007E2B05D0FB79032B02D0FB797D2B01D1A9
:10374000012300E0002318460C37BD465DF8047BDA
:10375000704700BF80B588B000AFF860B9607A608C
:103760007B68BB61FB687B61BB683B610023FB61DD
:1037700028E03B691B781846FFF7D4FF0346002B6F
:1037800013D07B697D221A707B6901337B613B69B1
:103790001B7883F02003DAB27B691A707B690133EE
:1037A0007B61BB690133BB6106E03B691A787B69C9
:1037B0001A707B6901337B61FB690133FB613B69F3
:1037C00001333B61FA697B689A42D2D3BB691846E0
:1037D0002037BD4680BD00BF80B588B000AFF8601F
:1037E000B96011461A460B46FB711346BB71BB68A4
:1037F0003B61BB79002B1CD10423FB610023BB611F
:1038000012E0FB69013B07F12002134413F8101C7E
:1038100007F11402BB6913440A461A70BB690133ED
:10382000BB61FB69013BFB61BB69032BE9D97B6988
:103830003B61FB79002B08D007F11003F8681946AB
:103840000422FFF787FF034606E0FB681A4607F1EC
:10385000100318681060042318462037BD4680BD49
:1038600080B487B000AF78600B46FB700023FB602C
:103870000023BB607A6807F10C0310681860FB78BE
:10388000002B1DD104237B6100233B610023BB601F
:1038900011E07B69013B07F10C013A690A44127897
:1038A00007F118010B4403F8102C3B6901333B610D
:1038B0007B69013B7B613B69032BEADDBB6800E070
:1038C000FB6818461C37BD465DF8047B704700BF97
:1038D00080B588B000AF7860396000237B61002339
:1038E000FB763B685B78002B01D1002386E07B6888
:1038F0007E221A707B687E225A707B6803221A74BB
:103900007B6803225A747B6800225A617B6800221C
:103910009A617B680022DA617B68002283F82020AC
:103920007B6838681946022200F08EFA0346FB765F
:10393000FB7E002B00D060E07B68023307F10C02B5
:10394000104619460122FFF705FF786107F10C03C5
:10395000386819467A6900F077FA0346FB76FB7EF1
:10396000002B00D049E07B685A683B681B7807F160
:103970000C01084611460122FFF72EFF786107F17E
:103980000C03386819467A6900F05EFA0346FB7644
:10399000FB7E002B00D030E00023FB611BE07B6846
:1039A0009A68FB69134407F10C021046194601227C
:1039B000FFF7D0FE786107F10C03386819467A6981
:1039C00000F042FA0346FB76FB7E002B00D014E0A9
:1039D000FB690133FB617B685A68FB699A42DED858
:1039E0007B68103338681946022200F02DFA03462E
:1039F000FB76FB7E002B00D000BFFB7E18462037F5
:103A0000BD4680BD80B584B000AF786039600023CA
:103A10007B730023BB600023FB730023BB733B68F5
:103A20005B78002B01D101237BE17B687E221A7039
:103A30007B687E225A707B6803221A747B6803229B
:103A40005A747B6800225A617B6800229A617B6805
:103A50000022DA617B68002283F8202007F10D0242
:103A600007F1080338681146012200F059FA0346AD
:103A7000BB73BB7B002B00D052E1BB68012B08D08D
:103A80007B6800225A617B6800229A610123BB7324
:103A900046E17B685B69023B022B38D87B6893F870
:103AA0002030002B09D07B68002283F820207B7B0C
:103AB00083F02003DBB27B7328E07B7B7D2B04D07B
:103AC0007E2B07D0032B18D020E07B68012283F8DF
:103AD000202024E17A687B689A617B689B69591C85
:103AE0007A6891617A7B1A707B68DB695A1C7B6803
:103AF000DA617B6801225A6111E17B6800229A61D8
:103B00007B6800225A610023FB7300BF00E000BF06
:103B10007B685B69062B00F2F58001A252F823F066
:103B20003D3B00086B3B00089B3B0008E13B000865
:103B3000573C0008A73C0008053D00087B7B7E2B16
:103B400012D17A687B689A617B689B69591C7A6894
:103B500091617A7B1A707B68DB695A1C7B68DA6139
:103B60007B6801225A61CEE0CDE07B7B7E2B11D1B8
:103B70007B689B69591C7A6891617A7B1A707B68B3
:103B80000022DA617B6802225A617B689A1C7B689A
:103B90009A61B8E00123FB73B5E07B68DB69002B19
:103BA0001AD17B689B69591C7A6891617A7B1A707B
:103BB0007B68DB695A1C7B68DA617B68DB69012BF7
:103BC0000DD17B6803225A617B681A1D7B689A615C
:103BD0007B680022DA6196E00123FB7393E092E0B8
:103BE0007B68DB69032B32D87B689B69591C7A6838
:103BF00091617A7B1A707B68DB695A1C7B68DA6199
:103C00007B68DB69042B25D17B681A1D3B681B7818
:103C100010461946FFF724FE02467B685A607B680F
:103C20000022DA617B685B68002B07D07B68042286
:103C30005A617B689A687B689A610BE07B68052211
:103C40005A617B6803F110027B689A615BE0012393
:103C5000FB7358E057E07B68DA697B685B689A42DF
:103C60001DD27B689B69591C7A6891617A7B1A70B6
:103C70007B68DB695A1C7B68DA617B68DA697B6880
:103C80005B689A420ED17B6805225A617B6803F11A
:103C900010027B689A617B680022DA6133E00123BD
:103CA000FB7330E02FE07B68DB69012B26D87B7B40
:103CB000032B20D17B689B69591C7A6891617A7BC0
:103CC0001A707B68DB695A1C7B68DA617B68DB6988
:103CD000022B16D17B6806225A617B6800229A610A
:103CE0007B680022DA617B685B69062B02D00123C6
:103CF000BB7315E014E00123FB7304E00123FB73A5
:103D000001E000E000BFFB7B002B08D07B680022B5
:103D10009A617B6800225A610123BB7300E09DE633
:103D2000BB7B18461037BD4680BD00BF80B483B052
:103D300000AF0C4B7B6001233B603B78012B03D031
:103D40007B6800221A7002E07B6801221A707B688F
:103D500000225A707B6818460C37BD465DF8047B1C
:103D6000704700BFDC02002090B587B000AFF8605C
:103D7000B9607A600023FB75FB685B78002B02D08A
:103D80000123FB752DE00120102102F08DFA03467E
:103D90001A46164B1A60154B1B68002B02D10123E3
:103DA000FB751EE0114B1B6800221A730F4B1B683A
:103DB00000225A73FB6801225A700C4B1C68B868C9
:103DC000796800F0C1FD03462360084B1B681B683F
:103DD000B3F1FF3F05D1FB6800225A700123FB7548
:103DE00000BFFB7D18461C37BD4690BDD8020020A1
:103DF00080B584B000AF78600023FB737B685B788C
:103E0000002B01D1012319E07B6800225A700D4B71
:103E10001B681B68184600F0CFFDB860094B1B6893
:103E2000002B04D0074B1B68184602F089FABB68C8
:103E3000B3F1FF3F01D10123FB73FB7B1846103721
:103E4000BD4680BDD802002080B586B000AFF860C6
:103E5000B9607A600023FB75FB685B78002B01D1A9
:103E600001230FE0094B1B681B681846B9687A6884
:103E7000FFF7B4F838613B69B3F1FF3F01D101238B
:103E8000FB75FB7D18461837BD4680BDD802002063
:103E900080B586B000AF786039600023FB750023E1
:103EA000FB607B685B78002B01D1012332E01B4B68
:103EB0001B681B7B002B04D03B6801221A70FB7D22
:103EC00028E03B6800221A70144B1B681968134BDA
:103ED0001B681A1D07F10C0308461146082200F062
:103EE000CBFD38613B69B3F1FF3F03D10123FB7583
:103EF000FB7D0FE0FB68002B0BD03B6801221A70A2
:103F0000064B1B68FA68D2B21A73044B1B68002276
:103F10005A73FB7D18461837BD4680BDD802002075
:103F200080B588B000AFF860B9607A603B6000236C
:103F3000FB7700237B6100233B617B68BB613B68AF
:103F400000221A60FB685B78002B01D1012349E055
:103F5000264B1B681B7B002B30D0244B1B681B7B24
:103F60001A46BB69934228BF13463B611F4B1B682F
:103F70001E4A1268527B13440433B86819463A69E2
:103F800002F0E6F9194B1B68184A1268117B3A696E
:103F9000D2B28A1AD2B21A73144B1B68134A12682F
:103FA000517B3A69D2B20A44D2B25A73BA683B69B9
:103FB0001344BB60BA693B69D31ABB610B4B1B68E6
:103FC0001B681846B968BA69FFF73AF878617B69E7
:103FD000B3F1FF3F02D10123FB7702E03B687A682F
:103FE0001A60FB7F18462037BD4680BDD8020020EE
:103FF00080B483B000AF786039607B68002B04D157
:104000003B68002B01D1012300E0002318460C3748
:10401000BD465DF8047B704780B584B000AFF860A2
:10402000B9607A60FB681A68BB681B68104619465D
:10403000FFF7DEFF0346002B0AD0BB687A681A60E0
:10404000BB681A68FB681A607B6800229A6409E002
:10405000BB681B687A689A64BB687A681A607B6878
:1040600000229A641037BD4680BD00BF80B584B081
:1040700000AF786039600023FB607B681A683B689A
:104080001B6810461946FFF7B3FF0346002B01D00B
:10409000002311E07B681B68FB60FB689A6C7B68FF
:1040A0001A607B681B68002B02D13B6800221A60F3
:1040B000FB6800229A64FB6818461037BD4680BD35
:1040C00080B500AF054B1A68054B1B6810461946B2
:1040D000FFF78EFF0346184680BD00BF2C0300206B
:1040E0003003002080B500AF054B1A68054B1B68F4
:1040F00010461946FFF77CFF0346184680BD00BFF7
:10410000340300203803002080B582B000AF78600F
:10411000034804497A68FFF77FFF0837BD4680BD32
:104120002C0300203003002080B500AF0348044971
:10413000FFF79CFF0346184680BD00BF2C030020FC
:104140003003002080B582B000AF78600348044996
:104150007A68FFF761FF0837BD4680BD3403002051
:104160003803002080B500AF03480449FFF77EFF05
:104170000346184680BD00BF3403002038030020EA
:1041800080B400AF034B1B681846BD465DF8047B46
:10419000704700BF3403002080B584B000AF002317
:1041A000FB720023FB6011E001204C2102F07CF83F
:1041B00003467B607B68002B02D10123FB7208E081
:1041C0007868FFF7A1FFFB680133FB60FB68042BF5
:1041D000EADDFB7A18461037BD4680BD80B584B055
:1041E00000AF78603960FFF79FFFF860FA683B68BE
:1041F000104679681A4602F0ABF83A68FB681A6410
:10420000FB6800225A64F868FFF79CFF1037BD4630
:1042100080BD00BF90B587B002AF78600023FB730C
:104220001B4B1B6818467968FFF7ECFB0346FB73D2
:10423000FB7B002B00D025E0154B1B689B78022BE5
:1042400003D1144B00221A701CE0114B1B689A68B2
:104250000F4B1B685B6810461946FFF7BFFFFFF75F
:104260002FFF0346002B0DD107F108040223009312
:10427000786800210022234600F00EF80346FB7305
:10428000FB7B002BFB7B18461437BD4690BD00BF5F
:10429000EC0000202803002090B58DB002AFF8603C
:1042A000B9607A603B60002387F823307B68FB614C
:1042B000FB69122B28BF1223BB613B68BA691A60E5
:1042C00000237B6249E00023FB7507F11703F868C0
:1042D0001946FFF7DDFD034687F8233097F82330B2
:1042E000002B00D061E0FB7D002B0AD0F868FFF7BF
:1042F00091FF034687F8233097F82330002B00D036
:1043000053E0FFF7DDFE0346002B24D07B6A5A1CE6
:104310007A62C72B21DD00237B62FFF73DFF034656
:1043200087F8233097F82330002B00D03DE007F1C9
:10433000100402230093F868002100222346FFF7AF
:10434000ABFF034687F8233097F82330002B01D0CA
:1043500000BF2AE001E000237B62174B1B78002B93
:1043600003D097F83830022BADD1144B1B68BA69D3
:104370005A60124B1B6897F838209A700F4B1B68D5
:104380009A68BB691046B9681A4601F0E1FF0B4B09
:104390001B681846F968FFF79BFA034687F8233035
:1043A00097F82330002B00D000BF97F82330184631
:1043B0002C37BD4690BD00BF28030020F000002030
:1043C00090B58BB002AFF860B9607A60FB700023E3
:1043D0007B610023FB610023FB761AE0FB69BA686E
:1043E000D1187A68FB69D21A07F11404FB7800939C
:1043F000F8682346FFF750FF0346FB76FB7E002B51
:1044000000D00AE07B69FA691344FB61054B012285
:104410001A70FA697B689A42E0DBFB7E1846243703
:10442000BD4690BD2803002090B58DB002AFF86066
:10443000B9607A603B60002387F82330FFF7A0FE65
:1044400078620DE0F868FFF7E5FE034687F8233051
:1044500097F82330002B00D054E0FFF791FE7862EC
:104460007B6A002BEED07B6A1A6C7B6A5B6CD31A7A
:10447000FB617A68FB699A4203DB3B68FA691A6060
:1044800002E03B687A681A607B6ABB617B6A5B6C9E
:10449000BA691344BB613B681B68B868B9691A46BE
:1044A00001F056FF7B6A5B6C3A6812681A447B6ABB
:1044B0005A647B6A5A6C7B6A1B6C9A4222D1FFF762
:1044C000FFFD0346FB757B6A00221A647B6A0022AB
:1044D0005A64FFF747FE03461846FFF715FEFB7DBB
:1044E000002B0FD007F1100402230093F86800217D
:1044F00000222346FFF7D0FE034687F8233097F8C3
:104500002330002B97F8233018462C37BD4690BD3A
:1045100080B584B000AF786039600023FB733B68DE
:1045200000221A70FFF7DEFD0346002B24D0002383
:10453000BB7307F10E0378681946FFF7A9FC034621
:10454000FB73FB7B002B00D019E0BB7B002B12D050
:104550007868FFF75FFE0346FB73FB7B002B01D0FF
:1045600000BF0CE0FFF7BEFD0346002B03D13B6804
:1045700001221A7003E002E03B6801221A70FB7B03
:1045800018461037BD4680BD80B400AF034B0022F3
:104590001A70BD465DF8047B704700BF28030020F9
:1045A00080B500AF05E0FFF7BFFD0346184601F0F8
:1045B000C7FEFFF785FD0346002BF4D005E0FFF7AB
:1045C000D1FD0346184601F0BBFEFFF78BFD034605
:1045D000002BF4D0154B1B689B68184601F0B0FE09
:1045E000124B1B6818460021242201F0BCFE104B20
:1045F0001B689B68184601F0A3FE0D4B1B6818460C
:104600000021242201F0AFFE0A4B00221A60094B60
:104610001B68094A1360094B00221A60074B1B688C
:10462000074A1360FFF7B0FF80BD00BFEC00002019
:10463000F000002038030020340300203003002065
:104640002C03002090B587B000AF7860396000235C
:104650007B614023FB600023FB74FFF767FB7861FD
:104660007B69002B00D13AE0FFF79AFF214B1C68D1
:10467000F86801F05DFE0346A3601E4B1B689B6853
:10468000002B02D10123FB7429E01A4B1B68FA6846
:10469000DA60194B1C68F86801F04AFE0346A36013
:1046A000154B1B689B68002B02D10123FB7416E09D
:1046B000114B1B68FA68DA60FFF76EFD0346FB7466
:1046C000FB7C002B00D00AE0786979683A68FFF734
:1046D0004BFB0346FB74FB7C002B00D000BFFB7C34
:1046E000002B01D000237B617B6918461C37BD4637
:1046F00090BD00BFF0000020EC00002080B582B02B
:1047000000AF7860FFF74CFF7868FFF771FB034656
:1047100018460837BD4680BD80B485B000AF7860CC
:104720000023FB73FB7B18461437BD465DF8047B02
:10473000704700BF80B483B000AF786039607B6899
:104740005B68002B14BF01230023DBB21A463B68D1
:104750001A70002318460C37BD465DF8047B70477D
:1047600080B582B000AF7860FFF70EFF0837BD4616
:1047700080BD00BF80B582B000AF78607B685B68A9
:10478000002B07D07B685B681846FFF7B7FF7B6894
:1047900000225A600837BD4680BD00BF80B588B092
:1047A00000AFF860B9607A600023FB610123BB6150
:1047B0000123FB751DE0BB695A1CBA619B007A6836
:1047C00013441B683B613B69002B00D111E0386941
:1047D000144901F089FE0346002B0AD10123FB7521
:1047E000BB6903F18043013B9B007A6813440022BC
:1047F0001A60BA69BB689A42DDDBFB68FA7D1A7001
:10480000B8687968FFF71EFF0246FB685A60FB68CC
:104810005B68002B01D1044BFB61FB691846203714
:10482000BD4680BD046600080866000880B483B0F9
:1048300000AF78607B681B7818460C37BD465DF882
:10484000047B704780B400AF024B1846BD465DF84C
:10485000047B70473C03002080B483B000AF7860D5
:104860000C37BD465DF8047B704700BF80B586B04D
:1048700000AFF860B9607A603B600023FB75FB68AD
:104880005A6807F1160310461946FFF741FE034622
:10489000FB75FB7D002B00D015E0BB7D002B04D108
:1048A0007B6800221A6000BF0DE0FB685B68184659
:1048B0003968BA687B68FFF7B7FD0346FB75FB7D77
:1048C000002B00D000BFFB7D18461837BD4680BDC9
:1048D00080B586B000AFF860B9607A603B600023B5
:1048E000FB75FB685B6818467968BA680123FFF7B7
:1048F00067FD0346FB75FB7D002B00D002E03B68A3
:10490000BA681A60FB7D18461837BD4680BD00BFE7
:1049100080B485B000AFF860B9607A601437BD46E6
:104920005DF8047B704700BF80B582B000AF78604F
:104930007B685B681846FFF75BFA7B6800225A6069
:104940000837BD4680BD00BF80B582B000AF78603B
:104950003960144B144A1A60124B00229A80134B90
:10496000134A1A60114B00229A80104B0022DA8001
:104970000E4B00225A640F48012100F0DDFB4FF47A
:104980000030012100F0F6FB00F0BEF800F030F935
:104990004FF4E12000F0BAF9012318460837BD466C
:1049A00080BD00BF480F002048030020500F0020AA
:1049B000480B00200100200080B483B000AF786075
:1049C000002318460C37BD465DF8047B704700BFD6
:1049D00080B584B000AFF860B9607A603B6000BF1A
:1049E000194800F027FE0346002BF9D17B68B3F588
:1049F000806F28BF4FF480637B60144B1B681846A0
:104A0000B9687A6801F0A4FC7B689BB21A460F4B28
:104A10009A610E4B1B681A460C4B1A610A480C49E6
:104A200000F088FD08481021012200F01BFE064816
:104A3000012100F0D5FD3B687A681A600023184612
:104A40001037BD4680BD00BFA0600240500F00205F
:104A5000580F002080B500AF0548064900F03CFE25
:104A60000346002B03D00248024900F08DFE80BDB2
:104A7000A06002400080202080B588B000AFF860C0
:104A8000B9607A603B6000F007F903461A467B681C
:104A90009A422FD31B4B9B88FB821A4B1B683B61AE
:104AA000BB68BB610023FB6110E0BB695A1CBA61A3
:104AB000FA8A39690A4412781A70FB8A01339BB268
:104AC000C3F30A03FB82FB690133FB61FA697B686C
:104AD0009A42EAD30B4B9B889AB27B689BB21344F1
:104AE0009BB2C3F30A039AB2064B9A803B687A687A
:104AF0001A6002E03B6800221A6000231846203743
:104B0000BD4680BD480F002080B592B000AF33484D
:104B100000F03EFC00BF314800F08CFD0346002B46
:104B2000F9D14FF000637B6000233B612C4B1B6885
:104B3000FB604FF400637B612A4BBB600023BB61C9
:104B40004FF48063FB6100233B6200237B624FF4E0
:104B50008073BB624FF44033FB6200233B6303234B
:104B60007B630023BB630023FB633B1D1B4819468B
:104B700000F0E0FC102387F84030002387F8413034
:104B8000002387F84230012387F8433007F14003C0
:104B9000184600F027FE11481021012200F062FDA6
:104BA0000E48012100F01CFD0F4B7B6400BF0B4839
:104BB00000F040FD0346012B04D07B6C5A1E7A6442
:104BC000002BF4DC7B6C002B04DC084B4FF0FF3235
:104BD0001A60FEE74837BD4680BD00BF88600240CE
:104BE000480F00200444004040420F0044030020CE
:104BF00080B582B000AF254800F0CAFB00BF234853
:104C000000F018FD0346002BF9D1214B4FF0006254
:104C10009A601F4B40225A611D4B1B681A461C4B61
:104C20001A611B4B01229A61194B1A4ADA60184B20
:104C30000022DA61164B4FF480621A62144B002294
:104C40005A62134B00229A62114B0022DA62104B17
:104C50004FF440321A630E4B00225A630C4B03226E
:104C60009A630B4B0022DA63094B00221A6411236A
:104C70003B7100237B710023BB710123FB713B1D42
:104C8000184600F0AFFD0837BD4680BDA060024069
:104C9000500F00200444004080B582B000AF10489F
:104CA00000F0BAFC0346C3F500637B600D4B9B88A4
:104CB0009BB21A467B689A4206DC0A4B9B889BB2E1
:104CC0001A467B689B1A06E0064B9B889BB2C3F58D
:104CD00000627B68134418460837BD4680BD00BF9C
:104CE00088600240480F002080B500AF05480649A3
:104CF00000F0F2FC0346002B03D00248024900F00A
:104D000043FD80BD886002400088002080B588B0E7
:104D100000AF786007F11803184600F0D7FA0C23AB
:104D2000BB6102233B770023BB770123FB77022380
:104D30007B7707F118031B48194600F039FA194828
:104D40000221072200F0DCFA16480321072200F0B6
:104D5000D7FA07F10803184600F0E4F87B68BB6057
:104D60000023BB810023FB8100233B820023BB8205
:104D70000C237B8207F108030B48194600F016F854
:104D800009484021012200F009F907488021012249
:104D900000F004F90448012100F0E0F82037BD4696
:104DA00080BD00BF000002400044004080B58AB0D2
:104DB00000AF7860396000237B6200233B620023F0
:104DC000FB610023BB617B681B8A9BB27B627B6AB1
:104DD00023F440537B623B68DB881A467B6A1343AB
:104DE0007B627B6A9AB27B681A827B689B899BB2E2
:104DF0007B627B6A23F4B05323F00C037B623B6835
:104E00009A883B681B8913439AB23B685B891343BA
:104E10009BB21A467B6A13437B627B6A9AB27B68B9
:104E20009A817B689B8A9BB27B627B6A23F4407386
:104E30007B623B689B891A467B6A13437B627B6A71
:104E40009AB27B689A8207F10803184600F0CAF804
:104E50007B68314A934203D07B68304A934202D147
:104E60007B693B6201E03B693B627B689B899BB24B
:104E70009BB21BB2002B0CDA3A6A13469B00134418
:104E80009A001A443B681B685B00B2FBF3F3FB61BA
:104E90000BE03A6A13469B0013449A001A443B689D
:104EA0001B689B00B2FBF3F3FB61FB691C4AA2FB8E
:104EB00003235B091B017B627B6A1B09642202FBE3
:104EC00003F3FA69D31ABB617B689B899BB29BB2DF
:104ED0001BB2002B0CDABB69DB003233104AA2FB99
:104EE00003235B0903F007037A6A13437B620BE039
:104EF000BB691B0132330A4AA2FB03235B0903F09F
:104F00000F037A6A13437B627B6A9AB27B681A81C9
:104F10002837BD4680BD00BF00100140001401408D
:104F20001F85EB5180B483B000AF78607B684FF48D
:104F300016521A607B6800229A807B680022DA8011
:104F40007B6800221A817B680C225A817B680022D0
:104F50009A810C37BD465DF8047B704780B483B0FE
:104F600000AF78600B46FB70FB78002B08D07B68A5
:104F70009B899BB243F400539AB27B689A8107E005
:104F80007B689B899BB223F400539AB27B689A8119
:104F90000C37BD465DF8047B704700BF80B483B01A
:104FA00000AF78600B467B8013467B707B78002BCC
:104FB00008D07B689B8A9AB27B8813439AB27B683D
:104FC0009A8209E07B689B8A9AB27B88DB439BB21A
:104FD00013409AB27B689A820C37BD465DF8047B19
:104FE000704700BF80B489B000AF78600023BB6118
:104FF00000237B610023FB6102233B610023FB60F4
:105000000223BB60484B9B6803F00C03BB61BB6988
:10501000042B07D0082B09D0002B3FD17B68434AD3
:105020001A603FE07B68424A1A603BE03E4B5B6897
:1050300003F480039B0DFB603B4B5B6803F03F0375
:10504000BB60FB68002B0DD0394ABB68B2FBF3F2A2
:10505000354B596847F6C0730B409B0903FB02F3BD
:10506000FB610CE0314ABB68B2FBF3F22E4B59688E
:1050700047F6C0730B409B0903FB02F3FB612A4B0D
:105080005B6803F440331B0C01335B003B61FA693E
:105090003B69B2FBF3F27B681A6003E07B68234A4A
:1050A0001A6000BF204B9B6803F0F003BB61BB6933
:1050B0001B09BB611F4ABB6913441B78DBB27B61D0
:1050C0007B681A687B69DA407B685A60164B9B687C
:1050D00003F4E053BB61BB699B0ABB61154ABB6922
:1050E00013441B78DBB27B617B685A687B69DA40CA
:1050F0007B689A600C4B9B6803F46043BB61BB699F
:105100005B0BBB610B4ABB6913441B78DBB27B6151
:105110007B685A687B69DA407B68DA602437BD4671
:105120005DF8047B704700BF003802400024F400A3
:1051300000127A00F400002080B483B000AF7860E1
:105140000B46FB70FB78002B06D00949084B1A6B05
:105150007B6813430B6306E00549054B1A6B7B68BC
:10516000DB4313400B630C37BD465DF8047B70478F
:105170000038024080B483B000AF78600B46FB700B
:10518000FB78002B06D00949084B1A6C7B68134347
:105190000B6406E00549054B1A6C7B68DB43134042
:1051A0000B640C37BD465DF8047B70470038024045
:1051B00080B487B000AF7860396000237B61002342
:1051C0003B610023FB6000237B6176E07B69012269
:1051D00002FA03F33B613B681A683B691340FB60CA
:1051E000FA683B699A4265D17B681A687B695B0003
:1051F000194603238B40DB431A407B681A607B68A7
:105200001A683B681B7919467B695B0001FA03F356
:105210001A437B681A603B681B79012B03D03B68FB
:105220001B79022B2ED17B689A687B695B0019463B
:1052300003238B40DB431A407B689A607B689A6843
:105240003B685B7919467B695B0001FA03F31A43FB
:105250007B689A607B685A687B699BB21946012318
:105260008B40DB431A407B685A607B685B683A6816
:10527000927911467A6992B201FA02F292B21A4315
:105280007B685A607B68DA687B699BB25B000321AC
:1052900001FA03F3DB431A407B68DA607B68DA6863
:1052A0003B68DB7919467B695B0001FA03F31A431B
:1052B0007B68DA607B6901337B617B690F2B85D961
:1052C0001C37BD465DF8047B704700BF80B483B0D7
:1052D00000AF78607B684FF6FF721A607B6800222F
:1052E0001A717B6800225A717B6800229A717B6870
:1052F0000022DA710C37BD465DF8047B704700BFB1
:1053000080B485B000AF78600B467B8013467B701D
:105310000023FB600023BB607B787A8802F00702E1
:1053200092009340FB607B88DB089BB218467B8829
:10533000DB089BB21A467B68083253F822207B8830
:1053400003F007039B0019460F238B40DB4302EA5F
:1053500003017B6800F1080243F822107B88DB0818
:105360009BB21A467B68083253F82220FB6813432D
:10537000BB607B88DB089BB21A467B680832B96841
:1053800043F822101437BD465DF8047B704700BF18
:1053900080B483B000AF78607B681B6823F00102A3
:1053A0007B681A607B6800221A607B6800225A6062
:1053B0007B6800229A607B680022DA607B680022AA
:1053C0001A617B6821225A617B68454A934203D166
:1053D000444B3D229A607EE07B68434A934204D16D
:1053E000404B4FF474629A6075E07B683F4A934289
:1053F00004D13C4B4FF474129A606CE07B683C4AD9
:10540000934204D1374B4FF074629A6063E07B683B
:10541000384A934203D1334B374ADA605BE07B680A
:10542000364A934203D12F4B354ADA6053E07B680A
:10543000344A934203D12B4B334ADA604BE07B680A
:10544000324A934204D1274B4FF03D52DA6042E09A
:105450007B682F4A934203D12E4B3D229A603AE05B
:105460007B682D4A934204D12A4B4FF474629A60B0
:1054700031E07B68294A934204D1264B4FF47412E1
:105480009A6028E07B68264A934204D1214B4FF072
:1054900074629A601FE07B68224A934203D11D4BDD
:1054A000154ADA6017E07B681F4A934203D1194B13
:1054B000134ADA600FE07B681C4A934203D1154B14
:1054C000114ADA6007E07B68194A934203D1114B15
:1054D0004FF03D52DA600C37BD465DF8047B7047F3
:1054E00010600240006002402860024040600240BC
:1054F00058600240706002403D0000208860024019
:10550000400F0020A060024000003D20B860024033
:10551000106402400064024028640240406402407B
:10552000586402407064024088640240A0640240F3
:10553000B864024080B485B000AF78603960002361
:10554000FB607B681B68FB60FA68244B1340FB60C0
:105550003B681A683B68DB681A433B685B691A431F
:105560003B689B691A433B68DB691A433B681B6ACB
:105570001A433B685B6A1A433B689B6A1A433B6861
:105580005B6B1A433B689B6B1343FA681343FB60E6
:105590007B68FA681A607B685B69FB60FB6823F0D4
:1055A0000703FB603B68DA6A3B681B6B1343FA68CE
:1055B0001343FB607B68FA685A613B681A697B6831
:1055C0005A603B685A687B689A603B689A687B6857
:1055D000DA601437BD465DF8047B70473F801CF0ED
:1055E00080B483B000AF78600B46FB70FB78002B73
:1055F00006D07B681B6843F001027B681A6005E0F7
:105600007B681B6823F001027B681A600C37BD467B
:105610005DF8047B704700BF80B483B000AF786052
:105620007B685B689BB218460C37BD465DF8047B0F
:10563000704700BF80B485B000AF78600023FB7373
:105640007B681B6803F00103002B02D00123FB736E
:1056500001E00023FB73FB7B18461437BD465DF861
:10566000047B704780B485B000AFF860B960134622
:10567000FB71BB6803F08003002B0FD0FB79002B7C
:1056800006D0FB685B6943F08002FB685A6105E065
:10569000FB685B6923F08002FB685A61BB68802B62
:1056A00014D0FB79002B08D0FB681A68BB6803F0A4
:1056B0001E031A43FB681A6008E0FB681A68BB689F
:1056C00003F01E03DB431A40FB681A601437BD4623
:1056D0005DF8047B704700BF80B487B000AF78608E
:1056E00039600023FB750023FB600023BB607B68EF
:1056F000224A934202D8224B3B6101E0214B3B619D
:105700003B6823F0F02323F0C313002B0AD03B683F
:10571000DB0A03F01E03FB607B681A68FB6813401A
:10572000BB6004E07B685B6903F08003BB603B689F
:1057300003F00053002B03D03B695B68FB6002E081
:105740003B691B68FB60FB6823F0F02323F08213A6
:10575000FB60FA683B681340002B05D0BB68002B48
:1057600002D00123FB7501E00023FB75FB7D184689
:105770001C37BD465DF8047B704700BF0F640240D4
:10578000006002400064024080B485B000AF7860E1
:1057900039607B68104A934202D8104BFB6001E0ED
:1057A0000F4BFB603B6803F00053002B07D03B68B6
:1057B00023F0F02323F08213FA68D36006E03B68FD
:1057C00023F0F02323F08213FA6893601437BD4668
:1057D0005DF8047B704700BF0F6402400060024028
:1057E0000064024080B485B000AF78600023FB7392
:1057F0000023BB730F237B737B68DB78002B38D0CF
:10580000264BDB68DB4303F4E0631B0AFB73FB7B83
:10581000C3F10403BB737A7BFB7B42FA03F37B7314
:105820007B685B781A46BB7B02FA03F3FB737B68E9
:105830009A787B7B1340DAB2FB7B1343FB73FB7BD1
:105840001B01FB73164A7B681B781344FA7B83F8B1
:105850000023134A7B681B785B09DBB218467B6820
:105860001B7803F01F03012101FA03F342F82030F3
:105870000FE00B497B681B785B09DBB218467B683D
:105880001B7803F01F0301229A4000F1200341F826
:1058900023201437BD465DF8047B704700ED00E01F
:1058A00000E100E080B500AF0F4B1B785A1CD1B26D
:1058B0000D4A1170002B09D00C4B01221A600A4BC3
:1058C0001B78013BDAB2084B1A700BE062B6FAF7AC
:1058D000C3FC72B6044B1B78013BDAB2024B1A7060
:1058E000FDF70EFB80BD00BF9C0F0020980F00202D
:1058F00080B584B000AF0123FB713F4BFB603F4B91
:10590000BB6072B6FDF7E8FCFDF72AFDFDF748FC29
:105910003B4B1B6800221A6000200021FDF74CFB66
:10592000FAF74EFD62B6364B1B6838331846FDF762
:1059300039FB0120FDF7F4FA0023BB71304B1B68E3
:105940005A68BB1D104601211A46FDF781FABB7942
:10595000002B04D02A4B1B68012283F84020FDF75E
:1059600037FB72B697ED030AFDF764FE244B1B6804
:105970001B68002B07D1224B1B6893F84030002B8B
:1059800001D1012300E00023DBB2FB7162B662B6F5
:1059900022E000237B711A4B1B685A687B1D10465E
:1059A00001211A46FDF786FA7B79002B04D0144BAF
:1059B0001B68012283F84020114B1B681B68002BD9
:1059C00007D10F4B1B6893F84030002B01D1012306
:1059D00000E00023DBB2FB71FB79DBB2002BD8D1F6
:1059E0000120FDF7A7FAFAF783FD72B600231846E7
:1059F0001037BD4680BD00BFCDCC4C3D00002843D4
:105A0000C065000881F0004102E000BF83F0004360
:105A100030B54FEA41044FEA430594EA050F08BF49
:105A200090EA020F1FBF54EA000C55EA020C7FEA0D
:105A3000645C7FEA655C00F0E2804FEA5454D4EB8A
:105A40005555B8BF6D420CDD2C4480EA020281EA54
:105A5000030382EA000083EA010180EA020281EA8C
:105A60000303362D88BF30BD11F0004F4FEA0131DE
:105A70004FF4801C4CEA113102D0404261EB4101ED
:105A800013F0004F4FEA03334CEA133302D0524273
:105A900063EB430394EA050F00F0A780A4F101042F
:105AA000D5F1200E0DDB02FA0EFC22FA05F2801869
:105AB00041F1000103FA0EF2801843FA05F359414F
:105AC0000EE0A5F120050EF1200E012A03FA0EFCCE
:105AD00028BF4CF0020C43FA05F3C01851EBE371F8
